:020000041000EA
:4000000000400208310100100D000000950100100000000000000000000000000000000000000000000000000000000091010010000000000000000091010010910100109B
:400040009101001091010010910100109101001091010010910100109101001091010010910100109101001091010010910100109101001091010010910100109101001060
:400080009101001091010010910100109101001091010010910100109101001091010010910100109101001091010010910100109101001091010010910100109101001020
:4000C00010B5064C2378002B07D1054B002B02D0044800E000BF0123237010BDA41300080000000014710010084B10B5002B03D00749084800E000BF07480368002B00D130
:4001000010BD064B002BFBD09847F9E700000000A813000814710010AC020008000000007047EFF3108072B6704780F310887047FFF7F6FF72B6104C104DAC4209DA2168EE
:400140006268A368043B02DBC858D050FAE70C34F3E70B490B4A0020521A02DD043A8850FCDC094809490860BFF34F8F00F032F900F01EF8FEE70000B4B50110CCB50110A4
:40018000A4130008F42000080000000808ED00E0FEE7FEE700B504207146084202D0EFF3098001E0EFF30880043002F003FAFEE710B562B6134C144A1449200001F078FAD9
:4001C00023688022120613432360114804F0AEFE002003F013F9002806D10E4804F022FF0D4800F06BF906E00C4804F01BFF2D210B4802F0ABF907F069F8002002F0FCF8D9
:40020000F9E7C04600006640B8200008F8640010585F00106C5F001000000810A45F0010DC5F001070B56249E0239B00CB580F2213401A00D0329200525807210A40032AC2
:4002400005D0042A06D0002A12D15A4814E05A4A106811E01A00C0329200554952581F210A40112A06D0132A04D0FA20C00103E0524801E080200002002B36D14C4BB222EB
:40028000D2009A5801211140B125ED005A59120F032422405B591B0F1C4207D0444C63591B0F03242340012B02D102E0012300E00023002B01D0002901D1032A4BD13C4B05
:4002C000B022D2009D58AD03AD0B3D495958C904C90C9C58240E01231C40013403F09EF86843210003F09AF835E0012B33D1304BC822D2009A5801251540C024E4001A594B
:40030000120F03210A401B591B0F194207D028490B591B0F03210B40012B02D102E0012300E00023002B01D0002D01D1032A12D11F4DC022D200AB587F210B40A958090ABB
:400340001F263140AC58240C3440584303F066F8210003F063F8E0239B00154AD3581B0903221340D840144C6060164B1D692D0AFC32154001351969090E013103F04EF8ED
:40038000A060290003F04AF80500E06020610E4BC0180E4903F042F820750D4BE818FA21890003F03BF8A061C003E06170BDC0460000264000127A00C000000800366E0116
:4003C00084050000000021403F420F0040420F00E703000010B5234BB021C9005A58520052085A50E02080001A583024A2431A50802252045A501C491C4A9950A0218901FD
:4004000004329950FF211A4A995081315A58920092088020C00502435A505A588020000602435A505A58012082435A5000F05AF9FFF7F8FE00F06EF800F076F801F0CEFB26
:40044000B0235B055B78002B04D0B0235B055B78DBB200E02123212B03D1064B0022DA605A6010BD0000264001000200840500008C050000E00023408023024AD358032069
:40048000184070470000214010B5FFF74AFE084980228C58074B2340074C23438B508823034AD358DB06FAD5FFF73FFE10BDC04600002140FCFF00000100FA0570B505004A
:4004C000FFF72FFE0400FFF7D7FF032801D1FFF7DBFF0A4AB0239B00D55080215058084B03400848034353508823044AD358DB06FAD52000FFF719FE70BDC04600002140A8
:40050000FCFF00000300FA0510B5002000F0A6FD10BDC04610B5034A8021042000F0A6FA10BDC046C013000810B50748103000F0A3FB02F0AAF80400044800F00FFC20007D
:4005400002F0A7F810BDC046C0130008E85F0010FEE7C04630B587B0514BA021C9005A58032082435A504F4990240A594E4802400A510A691202120A8024640422430A6113
:400580000A6910400861E022920099580F20814399509958213081439950995880200006014399500021012000F0D2FD0021022000F0CEFD0021032000F0CAFD00210420BC
:4005C00000F0C6FD0021002000F0C2FD01A8374903000A0032CA32C312CA12C300F000FE002802D00420FFF7B3FF2D49304A8B588020000603438B502E4800F0A9FE0028FD
:4006000002D00420FFF7A4FF254C2B4BE1582B4A0A40E250E1582A4A0A40E250E25880252D062A43E250043BE158264A0A40E250E158254A0A40802189010A43E250E25806
:40064000802109020A43E250204A1168204B0B40802149000B431360002002F01DF81D4BE2581543E550E158012291430A43E2506421002001F0B6FF174B0021174A9950EE
:40068000802109015858084A0240D420800102435A508022D200124999509B5807B030BD0000264000002140FF00FFFF24600010087F0000400D030004050000FEFCFFFF68
:4006C000FFFF00FFFFF0FFFFFF8FFFFF00002740FFFCFFFF0C05000000000140140C000000FF008070B58AB09621002001F07AFF01F050FF002801D101F03CFF012001F01B
:400700002FFD264A516C264B0B40E82189010B435364536C1B0AFF2213403A2B07D11F4A516C204B0B40E82189010B435364FFF711FF01AC24220021200004F0EFFB802348
:400740001B03E3602100184801F01CFB24220021200004F0E3FB6023E3602100134801F011FB134D22002B00143343CB43C243CB43C243CB43C221000E4801F003FB220042
:400780002B00383323CB23C223CB23C223CB23C22100094801F0F6FA0AB070BD00002740FF00FFFFFFC5FFDF000032408000324024600010800232400003324010B5830839
:4007C0009A00801AC000FF228240D44381400A40072B32D89B001949CB589F46184B196A0C4022431A6228E0154B596A0C4022435A6222E0124B996A0C4022439A621CE009
:400800000F4BD96A0C402243DA6216E00C4B196B0C4022431A6310E0094B596B0C4022435A630AE0064B996B0C4022439A6304E0034BD96B0C402243DA6310BD80600010AB
:400840000000214083089A00801AC100FF228A40072B2BD89B001748C3589F46164B186A1040C84023E0144B586A1040C8401EE0114B986A1040C84019E00F4BD86A10402D
:40088000C84014E00C4B186B1040C8400FE00A4B586B1040C8400AE0074B986B1040C84005E0054BD86B1040C84000E00020C0B27047C046A06000100000214070B504007B
:4008C0000D000B4B9A680B4B9A420BD1002903D1FC21094801F03AFE1034064BA400E058E55003E01034A400044BE05870BDC04600ED00E000000008C060001000000010B1
:40090000F0B583B0041E019150D04368032B03D93621294801F01AFE0023E05E002802DBA178FFF74BFF0023E25E6368002A12DB9008224EC0308000875903210A40D200E9
:40094000FF25290091408F4399012B000B4093403B43835117E092B20F21114008398908063189001648844661444E6803200240D200FF2738009040864398013B0003403C
:40098000934033434B600E4B9A680E4B9A420FD1019B002B03D14521074801F0D7FD0023E05E0199FFF78AFF002002E0064800E0002003B0F0BDC046C060001000E100E09D
:4009C00000ED00E0000000080100560070B504000D000369002B0ADA0B0C03D00549064801F0B4FD2D042D0C6560002000E0034870BDC046B30200000461001001008A0090
:400A000070B505000C000368002B01DA002300E0084B002B0BD1EA60230C03D00649074801F094FD2404240CAC60002000E0014870BDC04601008A009A02000004610010CA
:400A400070B505000C1E03D19921064801F07EFD2B69002B03DAEB682360002000E0024870BDC0464461001001008A00F8B504000E0015000F283FD8002A10D100290ED176
:400A80000F2804D9AA21FF31214801F05FFD6401204B9C466444204B1C60002037E0002D2CD0002E2CD0F3062CD10F2C04D9AA21FF31174801F04AFD6401164B9C466444B6
:400AC000154F3C607E60BD60F2080021280004F025FA00212000FFF779FF3A0001CA0021FFF78EFF00280FD10B4B18680021FFF76DFF00280AD10AE0084808E0074806E092
:400B0000064804E0054802E0054800E00448F8BD84610010000023405015000803018A0001018A00F0B583B00D001C4B1B68DC68236883422DD947097B01C01A0123834051
:400B40001E00002903D101F0A0FD019001E000230193124B18680368002B01DA002300E00F4B002B0ED16368BF00DF193B68334203D133433B60002400E00A4C0021FFF7FE
:400B800025FF00E0084C002D04D1019801F081FD00E0064C200003B0F0BDC0465015000801008A00020188000301880004018A00F0B583B00D001C4B1B68DC68236883421A
:400BC0002DD947097B01C01A012383401E00002903D101F05AFD019001E000230193124B18680368002B01DA002300E00F4B002B0ED16368BF00DF193B68334203D0B343BE
:400C00003B60002400E00A4C0021FFF7DFFE00E0084C002D04D1019801F03BFD00E0064C200003B0F0BDC0465015000801008A00020188000301880004018A000A4B1B68A5
:400C4000DA68136883420BD943095901401A0121814052689B009B580B4203D0034802E0034800E003487047501500080101880004018A0000018800034B1B68002B01D18C
:400C8000014B18607047C0465C150008F0B5474680B404000F0090461E002B4B1B68002B03D1B421294801F051FC072C03D9B521264801F04BFC244B1B682C2060431C18B1
:400CC000FF22150035402560330A13406360330CA3600F2D04D9AA21FF311D4801F036FC6B011C4A94466344236165680F2D04D9E2214900164801F029FC6D01164B9C4665
:400D000065446561A668330C04D0F1214900104801F01CFC330C04D0E421FF310C4801F015FC3604330C1E43AE604346E36127620023A361069B002B02D000229B5EA38187
:400D400004BC9046F0BDC0465C150008C4610010846100100000234000102340F0B58FB0041E03D150212E4801F0F0FB6368032B03D952212A4801F0E9FBE36A002B03D139
:400D80005621274801F0E2FBE368072B03D95721234801F0DBFB236A072B03D95821204801F0D4FB236B002B03D159211C4801F0CDFB07AA1300210061C961C321C921C31B
:400DC00002AD290023001433C1CBC1C141CB41C10821535E0CAE3380079B1933B370089B0D930B9B0A980096A26AE16AFFF74EFF2B69E868002200920021FFF747FF216B01
:400E00003000FFF77DFD0023F25E002A05DB1F231A401E3B9340034A13600FB0F0BDC046C461001000E100E0F8B504000F0016001D00002A03D1FD21284801F087FB284B40
:400E40001B68002B03D1FE21244801F07FFB072C03D9FF21214801F079FB072F04D9802149001E4801F072FB1D4B1B682C2120004843181879435918012213004C68A3402F
:400E80001B044468A24014000269002A20D08F69002F1FD11268002A01DA002200E0114A002A19D132681204120C134333600369DE6001238B614D620569230C03D00A4902
:400EC0000A4801F043FB2204120CAA60002004E0074802E0074800E00648F8BDC46100105C15000801008A009A0200008461001004028A0007028A0070B504000D00160083
:400F0000134B1B68002B04D16221FF31114801F01DFB072C04D9B12149000E4801F016FB0B4B1B682C2060431C18236A002B04D1B3214900074801F009FBE369B34204D930
:400F4000236AB6009D51002000E0034870BDC0465C150008C46100100A028A0070B504000D000B4B1B68002B04D19421FF31094801F0ECFA072C04D9CA214900054801F0E0
:400F8000E5FA034B1B682C2060431818856270BD5C150008C461001070B582B0040000230193002804D1EA2149002B4801F0CEFA2369002B04D1D621FF31274801F0C6FA3E
:400FC0006369002B04D1EB214900234801F0BEFA236A002B04D1D821FF311F4801F0B6FA6269D5682B0C1FD01B041360136820690369002B18DA01A9FFF722FD00280ED1EB
:40100000019803681E0CFF221340E269934207D29B00226AD358002B02D0984700E0002631002069FFF7D2FC2D042D0C0FD063691D601B68636A002B03D0984700236362BC
:4010400003E0A36A002B00D098470023A36163691B6802B070BDC046C461001010B504000B4B1B68002B04D1DA214900094801F06DFA072C04D9B621FF31064801F066FAD1
:40108000034B1B682C2060431818FFF785FF10BD5C150008C461001010B50400114B1B68002B03D11049114801F050FA072C03D90F490E4801F04AFA0A4B1B682C206043FE
:4010C00018180C23C25E002A0ADB1F231A401E3B9340802207498B50BFF34F8FBFF36F8F002010BD5C1500082D020000C46100102E02000000E100E010B504000F4B1B682C
:40110000002B03D10E490F4801F020FA072C03D90D490C4801F01AFA084B1B682C20604318180C23C25E002A05DB1F231A401E3B9340064A1360002010BDC0465C150008F4
:401140004D020000C46100104E02000000E100E004281DD8042904D94B1EFF3B9BB2132B18D8FF290CD91F2319400B4A0300C0339B009950D03080000423835000200AE096
:4011800007231940D0308000034BC150002002E0024800E0014870470000264001004A0010B50400042804D91621FF310A4801F0CDF92300D0339B00084A98580723184029
:4011C000042807D1C034A400A3581B30184080235B00184310BDC046046200100000264070B5041E04D1E221FF314C4801F0AEF9B023DB004A4AD358002B01DB002500E0B9
:40120000484D002D00D086E0474B22689A4204D9F8214900414801F099F923689B03990BE3791B068022520413400B43B022D2003B498B50A2883D4B9A4204D9F821FF31D9
:40124000364801F083F92289394B9A4204D9FC214900324801F07AF9A388DB04D90C23891B04344A13400B43334A2D498B50A37A0F2B04D9FF214900284801F067F9E37AF5
:401280000F2B03D92A49254801F060F9A289274B9A4204D980218900204801F057F9A37A0F211940E27A1201FF2313400B43A289120222490A401343A27B1207C0218905FE
:4012C0000A401343B122D20015498B50A379072B04D982218900114801F038F9228A144B9A4203D916490D4801F030F90C4815494658154B1E40A3791B02E022D20013409F
:40130000334343504658114B1E40238A1B04094A134033434350280070BDC046046200100000264003004A00FFFF0300FF1F0000FF0100000000FF018405000000FF1F0087
:40134000090200008C050000FFF8FFFFFFFF00FE70B505002D492E4A8B588020000603438B502C0003E0012001F0E4F8013CB223DB00264AD3585B0701D4002CF3D1234906
:40138000B122D2008858234B03408020800503438B50002D02D00ED0002C0CD01B49B022D2008B588020000603438B5003E0012001F0C0F8013CB223DB00144AD358DB0715
:4013C00001D4002CF3D1002D0ED0002C0CD10F4AB021C90053585B005B0853500C4953585B005B0853500BE0084B0221B222D2009950B121C9005A58C020800502435A5023
:40140000002C01D1044800E0002070BD000026408C050000FFFFFFCF02004A00F0B5474680B45B4B98426FD89A4274D8594B994278D80124584B1C70FF2806D80E34044023
:401440000F250F239C46072021E0544B984206D80F2630400F2500239C46002417E0030A0F2633404E4CA04208D80001F03630401843FF2500239C46002408E00002F0265C
:40148000360130401843474D00239C460024FF2A10D81201FF231A401443E022D202024316000F3B62461A439446F0273F032F4300203DE0394B9A4208D81204F0273F0365
:4014C0003A40104306002F43002031E0160A3604F0231B031E403043314B9A420AD81205F0231B041A4010430600FF273F042F4300201DE01206F0263605324010430600B8
:40150000294F2F43002013E0002700239C460026002426480CE0002700239C4600260024224805E0002700239C46002600241F4800282AD11E4B1B68002BFBDA164B5B78F9
:40154000002B04D01B4B1C4AD358002B19DA1B4A1B4B1A601B4A1C4B1A60174BA322D20090469D58624695432C4342469C50174C1A59BA4332431A51074A51600D4A9950B0
:4015800000E0134800220A4B5A6004BC9046F0BD0F060000FFFFFF0060150008FF040000FF0500000F0F000000000F0F01004A00E00023401C050000000026401F1F000057
:4015C000080126403D3D0000040126401405000003004A0070B582B000220023009201932C4B1A702C4B1B68002BFBDA2B4B1A682B4B9A4206D12B4B1A682B4B9A4203D036
:40160000002502E0002500E00125A423DB00274AD4582402220A0023009201931E4B00225A60002D2DD0009A019B1A4329D0002815D1184B58680A000023002102F084F8B6
:40164000009C019DEE07620832436B0880185941009A019B02F058F80090019115E0009A019B0800002102F06FF80A4B5A685408002500196941002302F046F800900191A0
:4016800003E000220023009201930098019902B070BDC04660150008E0002340080126401F1F0000040126403D3D000000002640F8B505000C001600002800D1C1E1002975
:4016C00000D1C0E1C04B984200D1BEE10B78022B03D94221BD4800F039FF637B023BDBB2062B03D94321B94800F030FFA37B002B07D0022B05D0032B03D04421B34800F05B
:4017000025FF2123E35C012B03D94521AF4800F01DFF2823E35C012B03D94621AB4800F015FF2378012B06D86268083A082393429B415B4208E0A37F002B05D063685A1E2A
:40174000062393429B415B42002B03D048219F4800F0FCFEA368053B042B03D949219B4800F0F4FE6369FF2B03D94A21974800F0EDFEA369FF2B03D94B21944800F0E6FE10
:40178000A37C002B0FD02378002B07D1A368092B06D1A37B002B05D0012304E0012302E0012300E00023002B03D04D21874800F0CDFE874B626B1A4203D04F21834800F00A
:4017C000C5FE844BE26B1A4203D050217F4800F0BDFE2378022B02D1A37F002B02D063685A1E00E00022237F002B02D08021490200E00021A368082B02D880231B0100E0B6
:40180000002319430F2313400B438022920413432B60236B2A68120501D5802200E04022934203D36521694800F090FEA36B2A68120501D5802200E04022934203D3662149
:40184000624800F083FE636A2A68120501D5802200E04022934203D367215C4800F076FE23781B06C022920413402B64637F002B01D0402200E00022A07C002802D08023D1
:40188000DB0000E000231A43237C002B02D08021490000E000210A43637C002B02D08021890000E000210A43E36A013B1B04F020000303401343627B013A07210A40134391
:4018C0001900A27B120130231A400B001343AB64237B002B02D08021490000E00021E27B002A04D12378022B03D1013B02E0012300E00023002B02D080239B0000E0002381
:401900000B43A268013A0F273A401343C02292009446AB50FF2260691040A3691A04FF2109040A400243C4239B00EA50E26A6346EB583B4003339A4201D3102A03D97D219C
:40194000224800F003FEE37F002B04D02378012B03D0002302E0002300E00123002B02D08021490000E00021627B013A072313401943A27B120130231A400B0013436B64FF
:40198000237B002B02D08021490000E00021A3685A1E0F2313400B432278012A02D18022520200E00022134380229200AB50FF23226B1340C1229200AB502023E35C002B17
:4019C0000AD08021890408E0000069401063001092F4FFFF8CF8FFFF00212122A25C012A02D180235B0400E000230B432822A25C012A02D18022520200E000221343FF215E
:401A0000626A0A4013432B65A36B0B4081229200AB50104B626B13400F4AAB50E26B0F4B13400F4AAB50002E11D0002373603360B360F3603362F36233630A4B736300203B
:401A400006E0094804E0084802E0074800E00020F8BDC0466D0B0000C80F000073070000880F0000EFCDAB000160AA00F0231B06C3180F4A934201D8580A18E0EC231B069D
:401A8000C3180C4A934204D85B0A8020400218430DE0EA231B069C466044064B984204D8400A80229202104301E0012040427047FFFF0F00FF7F000010B50400FFF7D6FFCD
:401AC000431C03D0E40503D0002002E0002000E0012010BD214B984230D00ED8402831D004D800281FD010282AD031E080282BD080235B00984229D02AE0194B984229D088
:401B000007D8A0231B0698420DD0164B984212D01EE0154B98420AD0144B984209D0144B984215D101E0002016E0124814E0124812E0124810E0A020C0030DE007480BE046
:401B40000F4809E00F4807E00F4805E0034803E00E4801E0A420C0037047C04606005200010000F0090000A0040000F0050000F0030000F001005200020052000300520038
:401B8000010050000200500005005200FF00520010B50C4B1B69002B11DB0B4B1868FFF799FF0121094B0A4AD150084B084AD358002BFAD1074BD358002BF6D100E0064871
:401BC00010BDC046000023406C1500080C040000000025408C0400000200500010B5022202490020FFF788F910BDC0460503000870B504000D00FFF75FFF002827D0002D4B
:401C000027D0FEF70FFB144B144A1A6000225A609C60DD60124B19691A69120AFF2313405A1C0B0E013353430E4C5C430E4B1868FA21890001F0F2FB0100200001F0EEFBC7
:401C40000A4BC1188020400004F06EF902E0084800E0074870BDC0466C1500080001000500002140C0EA2101C4000008482600000600520010B5FFF78BFF10BD10B504003E
:401C8000FFF71AFF00282AD0FEF7CCFA154BE02252051A601A68802149000A431A605C6000229A60DA60104B19691A69120AFF2313405A1C0B0E013353430C4C5C430C4B28
:401CC0001868FA21890001F0A9FB0100200001F0A5FB084BC118002004F026F900E0064810BDC0466C1500080000214060F59000C4000008980800000600520070B504005D
:401D00000D00FFF7D9FE00282ED0002D2ED0FEF789FA174BC022D2041A601A68802149000A431A60832252005A609C60DD60114B19691A69120AFF2313405A1C0B0E01339A
:401D400053430D4C5C430D4B1868FA21890001F065FB0100200001F061FBE1239B00C118002004F0E1F802E0054800E0044870BD6C15000800002140808D5B00C40000088F
:401D80000600520070B505000C00002848D0002948D0FF230A689A4303D08D21224800F0D5FBFF2322699A4303D08E211E4800F0CDFBA3685B0D03D08F211B4800F0C6FBC4
:401DC00063685B0A03D09021174800F0BFFBE3695B0F03D09121144800F0B8FB236A5B0F03D09221104800F0B1FB104BEB18DB090F4A944663441B0122682A60E268AA62D9
:401E00002269EA6262692A63A2686A626268AA61A2696A63E2691A60226A5A60002002E0044800E0034870BD506300100000CEBF0010030401005A000D4BF222D2019A584C
:401E40000260F022D2019A5842600A4A9A588260094A9A58C260094A9A580261084A9A584261084A9A588261074A9B58C36170470000344004780000087800000C7800002F
:401E80001078000014780000187800000D4BF022D201416899500C4A816899500B4AC16899500B4A016999500A4A416999500A4A81699950094AC16999500168E832995098
:401EC0007047C0460000344004780000087800000C78000010780000147800001878000010B5074A074813580F24A34302210B43135004381358A3431943115010BDC046B3
:401F00000000214004F0000010B5074A074813580F24A34303210B43135004381358A3431943115010BDC0460000214004F000000449054A8858054B0340C020C001034326
:401F40008B5070470000214004F00000FF8FFFFF0449054A8858054B03408020C00103438B5070470000214004F00000FF8FFFFF10B5002000F0AAFBB0235B055B78002B1A
:401F800004D0B0235B055B78DBB200E02123222B03D8002803D1013002E0012000E0002010BDC04610B50400002000F08FFB00280AD114498A69144B1A40240680235B04D0
:401FC0001C4014438C611BE0002C01D00F4A00E00F4A01210F48FEF713FD00280DD10D4B1B69002BFBDB0B4BDB681B0E1B06A0221206934203D0084802E0074800E0002070
:4020000010BDC04600F02540FFFFFFFE0101003001000030000023400400420070B50400022805D0052803D02349244800F08EFAFFF79EFF00283CD000F027FB0600022CEC
:4020400010D10120FFF7AEFF051E18D1FFF748FF1B494B6907229343043A13434B61FFF767FF0CE016494B6907229343043A13434B61C82000F05EFAFFF76AFF0025002DA0
:4020800013D10F494B69072293431A000723234013434B61052C08D1C82000F04BFAFFF733FF0020FFF77EFF0500300000F0F1FA00E0044D280070BD37060000D063001090
:4020C000000026400300420010B50400012803D90D490E4800F03AFA002C03D10C4B5869C00F00E00020012C0CD1094B9B695B0005D4074B9B69002B03DA012002E0012098
:4021000000E0002010BDC0469C060000D06300100000264070B504000D00072803D90D490D4800F013FA0D4B9B690722134021009C420DD0094882690726B24334401443BB
:402140008461002D04D0994202D9C82000F0F2F970BDC046FC060000D063001000002640F8B50500012804D9EA21C900294800F0EDF9FFF7FDFE002848D000F086FA0700A7
:40218000002D17D1E823DB00B0225205D65CF6B20120FFF707FF041E1FD1FFF7A1FE1E481E4943581F229343143A13434350FFF7BFFE12E01A4BB0225205D65CF6B216483C
:4021C000164943581F229343143A13434350092000F0B0F9FFF7BCFE0024002C12D10E490E4A8B581F20834306401E438E50012D08D1163800F09EF9FFF786FE0020FFF76A
:40220000D1FE0400380000F044FA00E0054C2000F8BDC046D0630010000026401CFF0000410700000300420070B5040000F02DFA002C05D01A4B1B681F2B03D9002502E0B2
:40224000002500E00125002D25D0E368002B1FD02368002B1ED0124B59680B00002203E0A34204D01A005B69002BF9D100E00025002D10D0002902D1094B5C6000E054619B
:40228000226100236361064A13680133136002E0002500E0002500F0FCF9280070BDC0467C15000870B584B005000E00042803D929492A4800F04AF9731EDBB2012B07D9A8
:4022C000042E05D0082E03D02549244800F03EF9042E01D0012E1DD1224B5C68002013E023799D420FD1A368002B01D01E420AD1E36801A85A6842609B688360067023688D
:402300009847184B9C606469002C23D0164B9842E6D11FE0134B9C68022E02D1002C00D02469002011E023799D420DD1A368002B01D01E4208D1E36801A85A6842609B688F
:4023400083600670236898472469002C02D0064B9842E8D104B070BD95080000D0630010960800007C150008FF00420070B50500012804D94E21FF311B4800F0E7F81B4B8B
:402380001B68002B05D001210020FFF78BFF040000E00024002C20D100F077F90600134B1B68002B03D004210020FFF77BFF104A136904218B431361012D01D030BF00E0AE
:4023C00020BF300000F065F9084B1B68002B09D008210020FFF766FF04E002210020FFF761FF044C200070BDD06300107C15000800ED00E0FF00420070B50500012804D9CE
:4024000084218900384800F0A1F8384B1B68002B05D001210120FFF745FF040000E00024002C59D100F031F90600304B1B68002B03D004210120FFF735FFE0232C4AD35854
:40244000DB0603D529480C30FFF7F6FCB0235B055B78002B04D0B0235B055B78DBB200E02123212B03D1280003F066FD1FE02149214BCB581F221340E822D200B020400537
:40248000825CD31A5A1E9341DBB20A68120207D4012B05D1194BC158194B164AD15003E00021174B134AD150280003F04DFDE0230F4AD358DB0603D50C480C30FFF7E6FCC2
:4024C000300000F0E6F8094B1B68002B09D008210120FFF7E7FE04E002210120FFF7E2FE084C200070BDC046D06300107C15000800000140000026401CFF00001018000073
:40250000307F0000FF00420010B500F0BEF8074B5A6807490A40E824A40122435A605A68114059605B6800F0B4F810BD00002640FF00FC0F10B5034B1B78584300F09CF895
:4025400010BDC046D400000801BEFEE770B50D00044C18220100200002F06EFDA5610020FFF7F2FFF80500080122014B9A60704700002540054B802212069A649B6C002BFD
:4025800001DB002000E002487047C0460000274003004600054B8022120198585B68FF221A4202D08023DB021843704700002640FEE7C04610B50A4B0268DA6142681A62B9
:4025C00082685A62C2689A620269DA6242691A6382695A63C2699A63FFF7EAFF10BDC046F8050008F0B5002801D0192200E064228A42924152421C4BE8256D005C59032787
:40260000BC433A4014435C515C59184E34405C51D03D5C59BC4322435A515A5916405E51002805D010290DD921290DD8012014E01D290BD93A290BD957290BD978290BD89F
:4026400003200AE0002008E0022006E0002004E0012002E0022000E00420054A13680F218B4303431360F0BD00002140FFFCFFFF00002540000000000230800803D0013065
:402680000238FCD1C046C0467047EFF3108072B6704780F310887047042805D1094A116804230B4313600CE00006C0239B04184090239B00044AD050024A136804218B4345
:4026C0001360704710E000E00000214010B504000F2803D9E4210548FFF738FFA402044B9C46644423680F20184010BD106400100040244070B50378012B02D0082B40D0BD
:4027000045E00320FEF79AFA244B984241D000F053FE01283FD0022004F0DCFD0500FFF7B4FF1F4B186004F0D9FD0400062817D0022D0AD1022006F039FB032C01D0052C0C
:4027400010D1002810D0174C13E0012006F02EFB022C0BD000280BD1FFF708FE114C08E0002406E00F4C04E0002402E00D4C00E00C4C0C4B9C420FD1094B1868FFF789FF45
:402780000AE0074B1868FFF784FF002404E0054C02E0044C00E0034C200070BD01018800A8150008FF00420010B5002803D0044B5860002400E0034CFDF7B6FE200010BD9E
:4027C000A81500080100160000B58BB028220021684602F0A3FBD7231B016A4693811B2313835383183B1377013353770C33D377202269468B5401328B5452334B84012223
:402800003C3BCA540848FFF70FFD04F049FD06A804F094FD002804D1044B0193684604F061FD0BB000BDC046E400000834060008014B024AD050704778F0010000003C4064
:4028400010B50DF037F810BD10B5024B1B68984710BDC046BC15000810B5002809D0FA23FF33994207D80A00044902F04EFB002002E0034800E0024810BDC04607080016AA
:4028800001001600F0B55F4656464D464446F0B4B14CA54481460E00904605930B00AF4A914204D942468A18AD498A4211D9AD4A934204D94246B218AB498A4209D9AB4A15
:4028C000934200D823E14346F318A94A934200D922E1A84B5B695B0010D5A64B5B6907241C40022C25D10520FFF798FB0190A24B9842F8D003940123049324E09F4B9D4AA3
:40290000D3581F221A40E823DB00B0214905CB5C9B1A5A1E9341DBB20493002B0FD10120FFF71EFC944B9842F9D001900523039309E00394012304930023019303E0052376
:402940000393002301938E4B019A9A4204D1D621FF318C48FFF7FAFDF0231B069C466644730A9A465C0200210320FEF7DBF80028F9D100250023029399E0B4421BD3BD424B
:4029800019D24A4652191078804606A84146C154594600290DD1802149058846A044414609786846017001781278914201D001229346013505E080225205A218127806A882
:4029C000C2540134013304E0002100238B46844647466D4A9342D0D959466046B846002962D0019B002B5FD1059B002B51D1C83300951D00B3465646A24680231B03F71857
:402A00007F023800FFF73AF90400013D0120FFF791FDA423DB0322001A409A4201D1002DEBD122000294009D5446B2465E46574B9A4205D1FFF71EF9554B9842FAD0029053
:402A4000029B002B19D1C83300971F00A34606A90098FFF753F90400013F0120FFF76AFDA423DB0322001A409A4204D1002FEED102945C4601E002945C46444B029A9A42A7
:402A800011D1FFF7F7F8424B9842FAD0029001200AE0802000035044400206A9FFF7A8F80290012000E0012001239C46E244029B019A134301D1454586D3002801D0FFF7B1
:402AC00053FD00210320FEF773F80028F9D1019B002B25D1274B5B695B0009D5039B022B06D10220FFF79AFA0190234B9842F8D0204B1B681B0213D4049B002B10D1002018
:402B0000FFF72EFB01901C4B9842F8D008E000230193204B029303E0002301931D4B0293019B002B0CD11C4B029999420AD0194B994207D0002901D1002004E0174802E0F5
:402B4000174800E0174887239B009D443CBC90469946A246AB46F0BDE4FDFFFFFFFFFF0F00001010FFFFFF1300800014FF070016000A001600002640040042001CFF0000AC
:402B80000300420050640010FF0100000100500002005000060052000200520013001600120016000100160010B500280AD0FA23FF33994208D8F93BFF3B0A000349FFF7CA
:402BC00061FE02E0024800E0014810BD070800160100160000207047B0235B05588880B27047C0460020704710B5FFF7A3FC10BDA023DB00024AD358032018407047C046F4
:402C000000002640024B034AD058C00F7047C0461C0500000000264010B5FEF7DBFC10BD70B504000D0016000320FEF707F8054B984205D0320029002000FEF7EFFB00E05F
:402C4000014870BD0101880003004A0070B5431ADC171B196340934227D3164B164CE458A405A40D884208D9401A51084018110000F0D4FB201A0ED50AE0081A5108401833
:402C8000110000F0CBFB00190C4B984202D802E0002000E00A48084D06496B589B0A9B028205920D13436B5001E000240020201A70BDC0463C05000000002640FE030000DB
:402CC000FF03000010B5034B1A6880210902FFF7BDFF10BDFC00000810B500F015FA0220FFF7A6FD094C236818680949FDF708FE23681B6800229A5E002A05DB1F231A4015
:402D00001E3B9340034A136010BDC046AC1500084128001000E100E00420704710B5FFF7B4FC10BD10B5FFF7B4FC10BD10B5FFF71DFB10BD10B50021FFF7ECF910BDC04652
:402D400010B50020FEF7D8F910BDC04610B5FFF7F7FF074B1B681B6800229A5E002A05DB1F231A401E3B9340024A136010BDC046AC15000800E100E010B50020FEF78CF965
:402D800010BDC04610B5FFF7F7FF094B1B681B6800229A5E002A0ADB1F231A401E3B9340802204498B50BFF34F8FBFF36F8F10BDAC15000800E100E010B5074B1960012230
:402DC00001000020FEF798F8002803D100220349FEF792F810BDC046BC1500084928001070B50B001500020000210120FEF71CF8041E03D029000020FEF7B0F8200070BD5D
:402E000070B50D000F4B184300040F4BD861FA24A40003E0013C0120FFF78CFB0A4B1B6CDB0701D4002CF5D1002C08D0064B196C01220A431A64DB6A2B80002000E003480C
:402E400070BDC0460080FFFF00003C400400160010B500040E4B184001430E4BD961FA24A40003E0013C0120FFF764FB094B1B6CDB0701D4002CF5D1002C06D0054A116C10
:402E800001230B431364002000E0034810BDC0460000FF7F00003C4004001600F0B583B006000A24C02149017548FFF7D1FF002804D16B46991D7248FFF7A2FF002C01D08B
:402EC000013C00E06F48002805D16B46DA88C0235B019A42E6D1002825D16B46991D6A48FFF78EFF00281ED16B4606331B885B0519D40A248021C9006348FFF7A9FF002867
:402F000004D16B46991D6048FFF77AFF002C01D0013C00E05B48002805D16B46DA888023DB009A42E6D1002804D16B46991D5748FFF766FF002844D16B4606331B883F22D6
:402F40009343B278012A15D1F178012904D88FB20222D21B95B201E000250227402213439BB2302213436A46D380494BCB40494A136013E0F178002904D18FB20122D21B09
:402F800095B201E00025012740229343102213436A46D380404BCB403E4A13606B469C1DD9883943D9803948FFF752FFF378DB1B03221340AA0092B213432380374A38491E
:402FC0008B50B0235B055B78002B04D0B0235B055B78DBB200E02123212B4FD0314BB0225205D35A9BB2002B48D0002804D16B46991D2D48FFF704FF002824D16B469A1D16
:40300000DB8860218B4318001380B0256D05254C2B5B60310B405B08034324490B401380295BC901F020C00001400B43204919401180285BC0239B000340DB001943118019
:403040001948FFF705FF002804D16B46991D1948FFF7D6FE002811D16B469A1DD988C023994311800F4BB0204005C05A302303409B00194311800F48FFF7EAFE03B0F0BD07
:40308000021E000004001600031E0000091E00000048E801C00000080024F40064F0010000003C4016180000071E00007FF5FFFFFFE7FFFF061E000070B50C00400008491D
:4030C00001430848FFF7C4FE051E04D106490748FFF7BEFE05006001FFF72CFA280070BD01100000081E0000376800000F1E00000349044A8858102303438B507047C046D7
:4031000000003C4070F00100F0B59DB013A9144B0A00180070C870C270C870C270C870C20AAD28001A002432D0CAD0C0D0CAD0C0D0CAD0C001AC22004833C1CBC1C2C1CB93
:40314000C1C2C1CBC1C20748FEF71CFE29000648FEF718FE21000548FEF714FE1DB0F0BD8C640010000132408001324000023240F8B5051E00D1D4E06E4B5B689B0301D5CF
:40318000FFF7C2F96C4C03E0013C0120FFF7D2F96A4B6B4AD358002B01D0002CF4D1694B674AD358DB0704D5674BD358DB0700D5B9E0624B624AD358002B00D0B5E0FFF7A0
:4031C000A3FF5F4B6149624A99502A788021C9020A4360495A506049604A9950802252009B58DB0700D5A2E05D4B1B6F1B0709D45C4B18685C4B984206D9190000F00EF972
:40320000013802E0012000E000204D4B1B68002803D04003554A104300E055481843484B1860444B5B695B000ED501210320FEF771FF404B5B695B000CD53E4A9369802139
:40324000C9050B43936105E03D494A4A8858032303438B503A4C3B4AA658474B3343A3504020FFF767F9454BE358DB070BD42700424C01233B514020FFF75CF903233B5110
:403280004020FFF757F93E4F37403E4E3E432D4B2B4AD650FA24E40003E0013C0120FFF749F9394B394AD358DB0601D4002CF4D1002C01D0002400E0354C002C23D12049E5
:4032C000344A8858082303438B500120FEF7FCFE002801D1304E3E43304B1E4001231E43184B174AD650144E03E0013E0120FFF721F9154B124AD358DB0701D4002EF4D18D
:40330000002E00D1224C002C03D12800FFF7C6FD0400002C0CD168782978FFF7CDFE040006E01F4C04E01F4C02E01E4C00E01E4C2000F8BD00002640F07E0E006CF00100A2
:4033400000003C40A0F00100B4F0010006000001A4F00100A8F0010001000100ACF0010000F03D40C800000800093D00041A0080040A0080C4F0010030000300B0F001008F
:40338000EFFFFEFF2000020010400000000032400400160068F0010028000200FFFFFBFF010016000300160002001600014B18687047C046C000000810B5002405E0200022
:4033C000FDF7EEFE032804D00134042CF7D9002000E0012010BDC046A023DB00064AD35803221340012B03D0032B03D1012002E0012000E0002070470000264010B50548E0
:40340000FFF7D2F90122044B1A70002801D1FFF7DBF910BD00010008C0150008002243088B4274D303098B425FD3030A8B4244D3030B8B4228D3030C8B420DD3FF2209021D
:4034400012BA030C8B4202D31212090265D0030B8B4219D300E0090AC30B8B4201D3CB03C01A5241830B8B4201D38B03C01A5241430B8B4201D34B03C01A5241030B8B4258
:4034800001D30B03C01A5241C30A8B4201D3CB02C01A5241830A8B4201D38B02C01A5241430A8B4201D34B02C01A5241030A8B4201D30B02C01A5241CDD2C3098B4201D311
:4034C000CB01C01A524183098B4201D38B01C01A524143098B4201D34B01C01A524103098B4201D30B01C01A5241C3088B4201D3CB00C01A524183088B4201D38B00C01A6C
:40350000524143088B4201D34B00C01A5241411A00D20146524110467047FFE701B5002000F0F0F802BDC0460029F7D076E7704703460B437FD4002243088B4274D303096C
:403540008B425FD3030A8B4244D3030B8B4228D3030C8B420DD3FF22090212BA030C8B4202D31212090265D0030B8B4219D300E0090AC30B8B4201D3CB03C01A5241830BCA
:403580008B4201D38B03C01A5241430B8B4201D34B03C01A5241030B8B4201D30B03C01A5241C30A8B4201D3CB02C01A5241830A8B4201D38B02C01A5241430A8B4201D3DD
:4035C0004B02C01A5241030A8B4201D30B02C01A5241CDD2C3098B4201D3CB01C01A524183098B4201D38B01C01A524143098B4201D34B01C01A524103098B4201D30B011F
:40360000C01A5241C3088B4201D3CB00C01A524183088B4201D38B00C01A524143088B4201D34B00C01A5241411A00D201465241104670475DE0CA0F00D04942031000D346
:403640004042534000229C4603098B422DD3030A8B4212D3FC22890112BA030A8B420CD3890192118B4208D3890192118B4204D389013AD0921100E08909C3098B4201D3B0
:40368000CB01C01A524183098B4201D38B01C01A524143098B4201D34B01C01A524103098B4201D30B01C01A5241C3088B4201D3CB00C01A524183088B4201D38B00C01AAA
:4036C0005241D9D243088B4201D34B00C01A5241411A00D20146634652415B10104601D34042002B00D54942704763465B1000D3404201B5002000F005F802BD0029F8D003
:4037000016E770477047C046002B11D1002A0FD1002900D1002802D00021C943081C07B4024802A14018029003BDC046D9FFFFFF03B4684601B5029800F050F8019B9E4621
:4037400002B00CBC7047C046F0B54F464646C0B41604360C9946330005042C0C070C150C63437E436F4365431C0CAD1964199C46A64203D980235B02984647446346250CE0
:40378000EF191D044B464A4343432D0C240464199918C91920000CBC90469946F0BDC04670B500220C4B04000D0001F05DFA002804D12000290001F0B5F970BD064B0022FF
:4037C0002000290000F05AFE01F0ACF980231B069C466044F1E7C0460000E041F0B54D46564644465F46F0B4924683B004000D0099468B422FD82CD04946504601F05CFA7B
:4038000029000600200001F057FA331A9846203B9B4600D574E053465A4693401F005346424693401E00AF4229D826D05B46A41BBD41002B00DA79E000220023009201931B
:4038400001235A4693400193012342469340009319E08242D0D900220023009201930C9B002B01D01C605D600098019903B03CBC90469946A246AB46F0BDA342D6D9002290
:403880000023009201934346002BE8D0FB0772081A4346467B080EE0AB4201D1A2420CD8A41A9D41012024196D410021013E24184D41002E06D0AB42EED9013E24196D4142
:4038C000002EF8D15B460098019900196941002B22DB2B005A46D3402A004446E2401C005B461500002B2CDB26009E40330026004746BE403200801A994100900191AEE716
:40390000424620239B1A5246DA40414613004A468A4017001F4382E7424620239B1A2A0046469A402300F3401343D5E74246202300219B1A0022009101920122DA40019250
:4039400082E74246202326009B1ADE402F00B446974066463B003343C9E7C046F0B556464D4644465F46F0B41D000E034C00CB0F87B0070092468146360B640D98466AD065
:403980006D4B9C4235D08022430F12041343F6001E43C3009946694B00279C460023644402932B0368001B0BED0F51469B46400D009500D178E0604B98426CD05B46DA007F
:4039C0004B0F802109040B4313439B465346D9005A4B9C46002360444246201A6A40924601901F430F2F00D9B0E05548BF00C0598746374300D088E0002399460233082742
:403A000000260293CDE74346B34649460093029B009A9246022B00D0BFE1002153460122002689461A40444B002136030C0D2405360B2643434C1B0526401E437600D20701
:403A4000760816434846310007B03CBC90469946A246AB46F0BD330003434FD0002E00D1BCE1300001F00AF903000B3B1C2B00DDADE11D220100D31A08393A008F408E402E
:403A8000DA40B9461643304B00279C46002360444442029385E753465A4613432CD1002300219B46023397E70B4320D05B46002B00D19EE1584601F0E1F803000B3B1C2B0C
:403AC00000DD8FE102005946083A91408B461D21CB1A5146D9400B0059460B4351469B469140194B9C4660444042002374E7002300219B4601336FE703236DE700239946CB
:403B000001330427002602934BE703230C27029347E70122D51A382D00DCB0E153461A4000210023002689467EE700238026994600223603004B77E7FF07000001FCFFFFFB
:403B4000F86F0010FFFF0F80F30300005E4500D972E100D16DE1019B4D46013B01930023340002935B461E020B0E1E430B020393330C994633041B0C494620000093FFF7E0
:403B80004DFC009B370043430600494620009846FFF7CAFC2C0C09040C43A04509D9E419731EA74200D95CE1A04500D859E1023EE4194346E41A49462000FFF72FFC03009F
:403BC000009A80465343494620009B46FFF7ACFC2A040904120C0A4393450DD94346D219013B974200D93AE1934500D837E102235B429C46D219E0445B46D21A43463604F5
:403C000033439B460399180C0B0C1D00059309045B46090C0C001B041B0C4443049159436B4368431B190D0CEB189C4203D980246402A44660441C0C09041B04090C201838
:403C40005D18824200D2DEE000D1D7E0161A029B9C465D1BAC459B415B42F61AB74200D106E149463000FFF7D9FB009B04004343494630009846FFF757FC2E0C09040E4375
:403C8000B04509D9F619631EB74200D9F3E0B04500D8F0E0023CF6194346F31A494618000293FFF7BBFB009B06004343494602989846FFF739FC2D0409042D0C0D43A84583
:403CC00009D9ED19731EAF4200D9D6E0A84500D8D3E0023EED192404210043463143049E059A3000ED1A0B040C0C1B0C58436643534354439A19030C9B189E4203D98022BD
:403D00005202944664441A0C00041B04000C14191B18A54250D34DD001231943964A019B94466344002B00DCF3E64A0709D00F220A40042A05D00A1D8A42894149428B44B5
:403D400011005A46D20108D55A468C4B1A4093468022D2009446019B6344894A934200DD5BE65A46C908500708435602514601225B058146360B5B0D0A4055E680231B03A6
:403D80001E4211D05A461A420ED15E461E433603360B2A0089467B4B46E6032B00D1E1E0012BBBD11A40BBE61E433603360B4246744B39E6002BB1D07D194A1EAF4252D903
:403DC0001100A542A8D1039A9A42A5D1A6E703003E00283B9E400023994654E600F04EFF203041E603005246283B9A400021934677E6504600F042FF20305EE6029B002617
:403E0000AB4200D323E7039E0299B44661448846B045B6415B467642F619B218013B0291974213D290424FD800D18EE0161A9B460DE7894500D28EE674084B46F6073500D4
:403E40005B081D434B46DB0702938BE69742EDD10399029CA142E5D93E1A9B46F7E69846CAE61E00A5E6AC423ED874D0110053E70121494252E71C000EE71E002BE71F2D41
:403E80003CDC20230A0058465B1B9840EA4099400243481E81415E461143EE404B0709D00F230B40042B05D00B00191D99429B415B42F61833023CD55346012200211A404F
:403EC000002601238946AFE502235B429C46039CE344A446029B63449846A045B6417642F6190293B218B1E603988A1E41008142B6417642F619AD19039161E71F2252428A
:403F0000D31A5A46DA401300202D29D040225846551BA8400143481E814107200B4318400026002809D00F2200261A401900042ABBD10B0070077602360BDB080343994602
:403F4000012253461A4000236EE502998D42BBD89B4600267BE603989842C5D3110032E70020D7E780265B4636031E433603360B009A8946034B57E5FF030000FFFFFFFEF0
:403F8000FE070000FF070000F0B55F4656464D464446F0B40D0399464E002B0B87B00700924680469B46760DCC0F002E69D06D4B9E4235D05B468022DD001204430F1343DF
:403FC0002B439B46C3009846674B00279C460023664401934A4615035000D20F53462D0B400D914600D176E05E4A90426CD080225B0F120413435C4AED0094461D4353462C
:404000000022DB00604449463618701C6140029017430F2F00D9AFE05448BF00C759BF465B461F4300D088E000239B469846023308270193CEE74946022A6AD0032A00D106
:4040400009E2012A00D0BBE111400022002300259046CCB200212D030A0D12052D0B1543434A1B0515401D436D00E4076D0825434046290007B03CBC90469946A246AB461D
:40408000F0BD034352D05B46002B00D18AE1584600F0F4FD03000B3B1C2B00DD7BE11D22D31A3A0001005D46DA4008398D4013008F402B439B46B8462E4B00279C46002395
:4040C00060444642019385E752462A432CD100250023022297E752462A4321D0002D00D154E1280000F0CAFD03000B3B1C2B00DD46E11D21CB1A51460200D9405346083A5C
:40410000954093400D431B4A944660444042002279E7012400220C40124B0025904699E70025002301226EE703226CE700239B4698460133042701934CE703230C27019308
:4041400048E700238025984600242D03054B81E75D464346019A6FE75D4643462100019A6AE7C046FF07000001FCFFFF38700010FFFF0F80F30300004246120C91461A0C23
:404180009446424617044A461B041B0C5A43604690464A4642431000039262461C003F0C7A437C4342440192220C9246019A5244904506D98246802040028046C24450463E
:4041C0000390100C049048462404240C1204121905922A0C2D042D0C68432C00824648467C4350438146200C8046574357444744BA4503D9802040028046C144380C3F0417
:40420000B84648442404240C01900498A044404404905846000C814658460404200C8246070048465F434C464343604660436446834650464443380C8446E4186444A342A9
:4042400003D980235B029C46E34448463F04230C3F0C2404E419574668436F4384464D46504655434243380C814662444A445B44944503D9802040028446654403983F0419
:40428000834604983F0C8446E344C345804140428246100484460198674484466744A344BC46A345A4419946D44464428742BF41D4458041E144A04699459B417F424042B5
:4042C000C8440743120CBA18A045A4415F423B0064422343D71843467D19DB0D6D021D435B465A02059B1A43531E9A415B46DB0D1A4343465B021343EA0107D501225C084B
:4043000013402343EA07029E13436D08574AB218002A4BDD580709D00F201840042805D0181D98429B415B42ED180300E80104D54F4A15408022D200B2184E48824200DD36
:40434000E7E60124DB08680718436D02530580462D0B5B0D0C407DE6802259461203114208D0154206D115432D0398462D0B4C46414B6FE65D4615432D032D0B3E4B69E6C7
:4043800003005546283B9D400023BCE6504600F075FC2030A8E60300283B9F400023BB46984689E600F06AFC203073E60124A61A382E07DD00220C4000230025904649E6E6
:4043C000029EA3E71F2E20DC20222C001800921BF040944093400443581E83411C43F540630709D00F232340042B05D023001C1D9C4292415242AD182B021FD50124002281
:404400000C4001230025904624E61F202C004042821AD440202E1CD04022961BB5402B43581E83410720234318400025002809D00F2200251A401C00042AD8D12300680740
:404440006D022D0B0124DB08034398460C40002300E60025E3E780220124120315432D0398462D0B0C40044BF4E5C046FF030000FFFFFFFEFE070000FF070000F0B55746E7
:404480004E464546E0B40E001100F20F9246C500420F180337037400400A4E0F7F0A3043CF4E17435A00640D520DDB0FC900B24200D1E5E001267340A61AB446534500D1F4
:4044C000AFE0002E00DC0DE1002A3AD103000B4300D0E4E06B0709D00F232B40042B05D02B1DAB42AD416D427F191D003B0200D488E0BB4B01349C4200D110E13A00B94B16
:4045000051461A4001235007ED08520264050543120B640D0B400021280012030D0D120B64052D0515436208AF4CDB072C401443640064081C4321001CBC90469946A246E5
:40454000F0BDA74B9C42C5D080231B0418436346382B00DDFDE01F2B00DD30E1624620239B1A02009A40664690460A009940F24046464B1E99413243114363460200DA409E
:40458000691A8D429B410D00BA1A5B42D71A3B0235D57A02530A98464346002B00D1C4E0404600F06BFB0300083B1F2B00DDC5E020222900D21A4746D1409F400A009D408E
:4045C0003A439C4200DDC0E01C1B631C1F2B00DDE4E0202114002800C91AD8408C408D400443DA40681E854117002543002471E7424663461A4300D14CE2674645466B0752
:4046000000D069E7012351467807ED08FA080B40054373498C4238D012036405120B640D79E7002E00DC9AE0002A47D06C4A944200D14FE78022120410436246382A00DC4F
:4046400008E10143481E81410022C9B24919D219A942BF410D007F42BF183A0200D442E15F4A0134944200D14EE101205D4A69083A4028400843D507054357089A4629E7AB
:4046800006000E4300D017E714E72900114300D1F9E1802109030A431203120B3BE701235B429846C4446346002B72D1691A8D429B413F1A5B42FF1A0D0068E702000A43BE
:4046C00000D107E7012252429046C4446246002A00D0E6E06918A942B6413F187642F7190D00BAE7002E00D080E0621C5205520D012A00DCF9E06A1A91464D45B6413A1A24
:404700007642921B9046120200D499E04D1BA9428941C71B49427A1A90469A463CE752460123002513400022F5E6280000F0A6FA20300300083B1F2B00DC39E72A00283897
:40474000824000259C4200DC3EE7264FE41A1740C0E60143481E81410022C9B210E7002E00D0F1E0621C94465205520D012A00DCA0E01B4A944500D1C5E06918A9429241AC
:404780003F185242D2194908D5070D4357086446A0E6134B9C4200D0D9E69BE611001F3CE1400C00202B00D180E04021CB1A9A4015436A1E95410027254300241FE763467E
:4047C0000200203BDA406346202B71D0402366469B1B98400143481E814111430022CFE6FF070000FFFF7FFFFFFF0F80002C48D0CA4CA24200D1A2E07442A14680242404D0
:4048000027434C46382C00DDDBE01F2C00DD44E14E462024A41B3E00A640A246B0464C462E00E640B4464646644626435446A5406C1EA54134002C434D46EF400D1B28E097
:404840004A4643464D461A4300D0A5E6002300240025DEE61F2A5ADC66462022921B060096409146B04662460E00D640424616434A4691404A1E9141020060463143C2407B
:40488000E4E63C002C435AD0F443A146002C52D14D1BA9428941C71B49427F1A14009A4675E69E4A944200D0C7E613E600227FE700208FE7002C00D0C8E03B002B4300D10A
:4048C0000FE103000B4300D104E66918A9429B413F185B42DF193B0200D41AE1904B0D001F406446F6E59A4689E63A002A43002C5CD1002A75D102000A4300D1CAE0070020
:404900000D009A46E6E564460022002581E662460600203AD6406246B046202A00D1B7E040226646921B904001434246481E8141114300228AE6794CA24200D061E70700CC
:404940000D0014009A46C5E5002C41D13C002C4378D0F443A146002C20D0704CA24271D04C46382C00DDB2E01F2C00DDBCE02026341BA2463C005646B4404E46A0462C0028
:40498000F440A446444666463443A4465446A54064466E1EB54125434C46E7406D188D4289413F184942CF19140056E6002A2FD102000A4300D184E007000D009A46574CF9
:4049C00088E53D436F1EBD41ECB200270D1B60E7524CA24236D0744280263604A1463743BEE702000A4300D174E56A1A90464545B6413A1A7642921B9446120200D4F7E53C
:404A00004D1BA9428941C71B49427F1A9A4661E502000A433AD0ED087C072C438025FA082D032A4208D0C7082F4205D145072C003A009A46C9080C43670FD200E500174383
:404A4000364C47E507000D00140043E53A002A4343D002000A4319D0ED087C072C438025FA082D032A4207D0C6082E4204D147073C003200C9080C43D700620FE5001743CF
:404A80009A46264C26E50022002544E5234C21E5002049E700230025BBE54C463E00203CE6404C46B446202C31D040244E46A61BB7403D436C1EA54164462C4300270D1B49
:404AC000E7E6802200231203144C0025A1E53D436F1EBD410027EDB260E707000D000F4CF8E407000D00F5E44E463C00203EF440A0464C46202C0ED040244E46A41BA74012
:404B00003D436F1EBD4144460027254346E70027CFE70D0073E50027F2E7C046FF070000FFFF7FFF0B0330B5134D1A0B4B005B0DC90F0024AB4211DD104CA34210DC802487
:404B4000640322430E4CE41A1F2C0CDD0D48C31ADA4013005C42002900D11C00200030BD094BCC18FAE7E040084CA44663449A4013000343EEE7C046FE0300001D0400006F
:404B80003304000013040000FFFFFF7FEDFBFFFF70B5051E28D000F071F8154B154A1B1AD21A1F2A16DD2C00134A0025D21A94405A052403240B520D002124030B0D240B7F
:404BC0001B0523430D4C1205234013435B002800590870BD0B212C00081AC440954024035A05240B520DE7E700220024E4E7C0461E0400003304000013040000FFFF0F80AC
:404C00008446101C62468C46191C634600E0C0461FB500F001F9002801D40021C8421FBD10B500F055F84042013010BD10B500F0F3F8002801DB002010BD012010BDC04677
:404C400010B500F0E9F8002801DD002010BD012010BDC04610B500F07BF8002801DC002010BD012010BDC04610B500F071F8002801DA002010BD012010BDC0461C21012346
:404C80001B04984201D3000C10391B0A984201D3000A08391B09984201D30009043902A2105C40187047C0460403020201010101000000000000000010B5002903D1FFF7B0
:404CC000DDFF203002E0081CFFF7D8FF10BDC046F0B55F4656464D464446F0B41F035C00DB0F9A46194B0E034D00C90F8046360B6D0D8B4691463F0B640D9D4219D0134B4F
:404D00009C421BD00123A54206D018003CBC90469946A246AB46F0BDBE42F6D1C845F4D1D34510D0002DF0D1304303005A1E9341EBE7310001230143E7D1E0E73A430123B2
:404D4000002AE2D1DEE70023DFE7C046FF070000F0B55F46444656464D46F0B41F033C0B2C4F0E034D00A3465C008446360B6D0DC90F9046640DDB0FBD422BD0254FBC4274
:404D80002ED0002D0ED130430700814678427841002C17D15F463A4314D14B460020002B0AD006E0002C02D15846024301D099421AD00123484218433CBC90469946A24668
:404DC000AB46F0BD0028F2D058425841012240421043F1E737000743D0D002204042EBE75F461743CDD0F8E7A542E2DC05DB5E45DFD808D000205E45DED2484248410123B5
:404E000040421843D8E7C445D3D80020C445F4D3D2E7C046FF070000F0B55F464D4644465646F0B41C03240BA4462F4C0F034D005E00C90F80463F0B6D0D8B469146760DC9
:404E4000DB0FA54220D0284CA64222D0002D12D1384344424441002E20D0002C0DD05C42634101245B421C4320003CBC90469946A246AB46F0BD002E17D05B4519D05B4671
:404E80005C4201231C43EFE7390002240143EBD1D9E7614602241143E6D1D7E761460A43DBD100240028DFD0E9E761460A43E4D1E5E7B54203DD01225C421443D4E7B542C5
:404EC000CDDB6745DBD809D000246745CCD259464C426141012449420C43C5E7C845CED80024C845F3D3BFE7FF07000030B50024A24208D0035D651C0C5DA34201D0181B9C
:404F000002E02C00F4E7002030BD002310B59A4203D0CC5CC4540133F9E710BD03008218934202D019700133FAE770470FB40B4B13B51C68002C05D0A369002B02D120009A
:404F400000F050FA05AB049AA1682000019300F015FC16BC08BC04B01847C046A002000870B505000E00002804D08369002B01D100F038FAAB69AC68002B02D1280000F015
:404F800031FA254B9C4201D16C6808E0234B9C4201D1AC6803E0224B9C4200D1EC68A3891B0702D52369002B11D12100280000F0AFF800280BD0012040422BE0013B0136A3
:404FC000A360002B08DB23685A1C226019703178A3680029F2D10BE0A269934201DB0A29F1D12200280000F03BF8431CEFD1E2E7013BA360002B08DA22000A31280000F042
:405000002FF8431CD7D00A2004E00A2023685A1C2260187070BDC04680700010A0700010C070001010B5034B01001868FFF798FF10BDC046A0020008030030B5002A0DD0E0
:405040000C7801335D1E013A2C700131002CF5D19A189A4202D01C700133FAE730BD0000F8B505000F001400002804D08369002B01D100F0B7F9234B9C4201D16C6808E0E0
:40508000214B9C4201D1AC6803E0204B9C4200D1EC68A369A360A3891B070AD52369002B07D023682269FEB2981A636998420FDB08E02100280000F02BF80028F1D001204F
:4050C00040421DE02100280000F01EF90028F6D1A3680130013BA36023685A1C22601F706369984205D0A3893000DB0708D50A2E06D12100280000F007F90028DFD130007F
:40510000F8BDC04680700010A0700010C0700010364B70B51D6806000C00002D05D0AB69002B02D1280000F05DF9314B9C4201D16C6808E02F4B9C4201D1AC6803E02E4B13
:405140009C4200D1EC680C22A35E9AB2110723D4D10607D409220120326037321343A381404242E0530713D5616B002908D023004433994202D0300000F02CFA0023636306
:405180002422A3899343A38100236360236923600822A3891343A3812369002B0BD1A0238022A1899B0092000B40934203D02100300000F0D1F90123A289134005D00023D7
:4051C000A36063695B42A36103E0920700D46369A36000202369834207D10C22A35E1A0603D540221343A381013870BDA002000880700010A0700010C0700010F7B58A89A5
:4052000005000C0013075AD44B68002B02DC0B6C002B19DDE76A002F16D000232E682B6080235B011A4001D0606D14E00123216A2800B847431C0ED12B68002B0BD01D2B37
:4052400001D0162B02D12E6000205AE04022A3891343A38155E0A3895B0706D56368C01A636B002B01D0236CC01A00230200216A2800E76AB847A389421C06D129681D2983
:405280003AD8204ACA40D20736D50022626022692260DB0405D5431C02D12B68002B00D16065616B2E600029CED023004433994202D0280000F08EF90020606321E00F69F1
:4052C000002FC1D00B680F60DB1B01930023920700D14B69A36003E0019B3F181B1A0193019B002BB0DD019B3A00216A2800A66AB0470028F0DCA389402201201343A3819E
:405300004042FEBD010040200B6970B505000C00002B01D100201CE0002804D08369002B01D100F05FF80B4B9C4201D16C6808E0094B9C4201D1AC6803E0084B9C4200D121
:40534000EC680C22A35E002BE4D021002800FFF755FF70BD80700010A0700010C070001010B5024900F0B0F810BDC04609530010002310B504000360436083608181436644
:40538000C281036143618361190008225C30FFF7C5FD054B24626362044BA362044BE362044B236310BDC046F95C0010215D0010595D0010855D001070B568254B1E5D43A6
:4053C0000E002900743100F051F9041E08D000212A00016046600C30A0606832FFF79EFD200070BD836913B50400002B28D18364C3640365134B144A1B68826201939842B4
:4054000001D101238361200000F020F86060200000F01CF8A060200000F018F80022E06004216068FFF7A4FF01220921A068FFF79FFF02221221E068FFF79AFF0123A3613F
:4054400013BDC0467C70001061530010F8B51D4B06001D68AB69002B02D12800FFF7C2FF4835AC686B68013B05D40C22A75E002F10D06834F7E72B68002B01D02D68F0E7D5
:4054800004213000FFF798FF28600028F6D10C23336016E0012320005B42E3810233A38167662760A760676027616761A7615C3008223900FFF732FD20006763A763A764B0
:4054C000E764F8BD7C700010F7B504000700002601914834002C16D06368A5680093009B013B00930DD4AB89012B08D90E22AB5E013304D029003800019B984706436835B9
:40550000EDE72468E6E73000FEBD000070B50E001D000E23C95E90B01400002906DA00232B60B3891B060FD540230FE001AA00F055FC0028F3DBF023029A1B021340054ABD
:405540009B185A4253412B608023DB000020236010B070BD00E0FFFFF7B502268B8905000C00334210D101AB6A46FFF7CFFF00990700280000F07AF800280CD10C22A35E04
:405580009A0523D43343A3812300473323602361012363611AE080220D4BAB62A38920601343A381009B20616361019B002B0AD00E23E15E280000F023FC002803D00122C2
:4055C000A3891343A381A3891F43A781F7BDC0466153001070B50500002944D00C1F2368002B00DAE418280000F03BFC1E4A13681100002B02D16360146031E0A3420DD95F
:405600002268A018834203D118685B688218226063600C6024E0A24203D813005A68002AF9D11E689819A0420BD12168711858181960824214D110685268411819605A601E
:405640000EE0A04202D90C232B6009E021686018824203D1106852684118216062605C60280000F0FFFB70BDB0200008032370B5CD1C9D43083506000C2D01D20C2501E02D
:40568000002D01DBA94202D90C23336048E0300000F0E7FB234B1C681A002100002913D00B685B1B0DD40B2B02D90B60CC181EE08C4202D1636813601AE04B6863600C0073
:4056C00016E00C004968E9E7174C2368002B03D1300000F0FFFA20602900300000F0FAFA431C18D00323C41C9C43A0420DD12560300000F0B7FB200007220B30231D90438A
:40570000C31A0ED05A42E2500BE0211A300000F0E1FA431CEBD10C233000336000F0A2FB002070BDB0200008AC200008936810B5013B9360002B05DA9469A34208DBCBB2F1
:405740000A2B05D01368581C10601970C8B201E0FFF786FC10BDF8B506000F001400D518AC4208D021783A003000FFF7DFFF0134431CF5D100E00020F8BD0000F0B59FB034
:4057800006000F0002920593002804D08369002B01D1FFF727FE7F4B9F4201D1776808E07D4B9F4201D1B76803E07C4B9F4200D1F768BB891B070AD53B69002B07D0002301
:4057C00006AD6B6120336B761033AB763DE039003000FFF79DFC0028F1D001204042D6E0059A111D12680591002A00DA7FE00992013423782E2B00D18DE02178032268488B
:4058000000F024FB002807D0654B2A68C01A4023834013432B6001342178631C062261480293297600F012FB002800D19DE05E4B002B00D090E00722059B0733934308334A
:4058400005936B69039A9B186B61029C2378002B04D1029BE31A049312D003E0252BF8D00134F3E7049B029A39003000FFF773FF431C00D186E06A69049B944663446B61E9
:405880002378002B7ED00122002352426A6002A95432521801342B60EB60AB601370AB6521780522414800F0D1FA002808D03F4B2A68C01A0123834013432B600134EFE71F
:4058C0002B68DA0604D55322202102A8121811701A0704D553222B2102A81218117022782A2A00D17CE7099B00200A2105E05242EA60022213432B607AE72278303A092AD0
:4059000004D84B4301349B180120F6E7002800D16FE709936DE763782A2B0AD1059B02341A1D1B680592002B01DA01235B42079363E700230A201A0001346B602178303992
:40594000092904D84243013452180123F6E7002B00D152E7079250E705AB00933A00144B2900300000E000BF07E005AB00933A000F4B2900300000F08BF80390039B01332C
:4059800000D05EE7BB895B0600D526E70B981FB0F0BDC04680700010A0700010C0700010E6700010EA70001000000000E070001057570010F7B5170001938A680B6900908B
:4059C0000C00934200DA130022003B6043321278002A01D001333B6023689B0602D53B6802333B60062523681D401ED0230043331B785A1E9341226892061CD53020E11808
:405A00004331087021005A1C45310978A2184332023311700FE022000123193201990098089EB047431C0ED00135E3683A689B1A9D42F0DBDAE72200019943320098089DCA
:405A4000A847431C02D10120404220E006232068E1683A6803400025042B03D18D1AEB43DB171D40A3682269934201DD9B1AED180027BD420AD0220001231A320199009870
:405A8000089EB047431CDED00137F2E70020FEBDF0B58BB006920A0043320793059004920A7E0C00109B6E2A00D1ABE011D8632A22D009D8002A00D1B5E0582A00D0C5E091
:405AC00045310A70814A4FE0642A1DD0692A1BD0BCE0732A00D1AAE009D86F2A29D0702A00D0B3E0202209680A43226037E0752A1FD0782A33D0A9E00E001A684236111D34
:405B0000196013683370A4E021681A68080606D4490604D5111D19600023D55E02E0111D19601568002D3BDA2D23049A6D42137036E021681A68080606D4490604D515681C
:405B4000111D1960ADB202E0111D196015685F4B227E039308276F2A1DD00A271BE022007821453211705A4A19680392081D226818600D68100602D4500600D5ADB2D307FF
:405B800002D520231A4322601027002D03D1202322689A4322602300002243331A7002E00A274A4B03936368A360002B09DB0422216891432160002D05D1049E002B11D073
:405BC0007BE0002D79D0049E28003900FDF7ACFC039B013E5B5C280033703900FDF71EFC051EF1D1082F09D12368DB0706D563682269934202DC3023013E3370049B9B1BBE
:405C000023612BE009681A68080607D4490605D5111D19601368A28A1A8004E0111D1960136862691A600023049E236116E01A68111D1960166800216268300000F006F9AD
:405C4000002801D0801B6060636803E0260042363270012323610023049A1370079B09AA00932100069B0598FFF7A4FE431C02D10120404227E02369320006990598079D9D
:405C8000A847431CF4D0236800259B070FD4099BE068984217DA180015E022000123193206990598079EB047431CE1D00135E368099A9B1A9D42F0DBE9E72600039B4236D1
:405CC0001B7833708EE70BB0F0BDC046F170001002710010002370B5064C05000800236000F0FEF8431C03D12368002B00D02B6070BDC046F020000870B50C000E25495FEC
:405D000000F0B2F8002803DB636D1B18636503E0A289024B1340A38170BDC046FFEFFFFFF8B51F008B8905000C001600DB0505D50E23C95E0022022300F074F8A289054BD0
:405D400028001340A38132000E23E15E3B0000F01FF8F8BDFFEFFFFF70B50C000E25495F00F060F8A389421C03D1054A1340A38104E0802252011343A381606570BDC0463C
:405D8000FFEFFFFF10B50E23C95E00F015F810BD70B50500080011000022064C22601A0000F0ACF8431C03D12368002B00D02B6070BDC046F0200008002370B5064C0500FB
:405DC0000800236000F064F8431C03D12368002B00D02B6070BDC046F0200008002370B5064C050008001100236000F059F8431C03D12368002B00D02B6070BDF020000838
:405E0000002370B5064C05000800236000F050F8431C03D12368002B00D02B6070BDC046F020000870B50500080011000022064C22601A0000F044F8431C03D12368002B09
:405E400000D02B6070BDC046F0200008C9B28218904204D003788B4202D00130F8E70020704770477047000070B50500080011000022064C22601A0000F02AF8431C03D1BA
:405E80002368002B00D02B6070BDC046F020000858220120014B40421A607047F020000858220120014B40421A607047F02000085822024B00201A607047C046F0200008EC
:405EC00058220120014B40421A607047F020000858220120014B40421A607047F0200008044A1368002B03D01818106018007047014BF9E7B4200008F82000085822012045
:405F0000014B40421A607047F0200008F8B5C046F8BC08BC9E467047F8B5C046F8BC08BC9E4670470000000001B40248844601BC604700BF3103000801B40248844601BC10
:405F4000604700BF2504000801B40248844601BC604700BFF904000848454C4C4F2046524F4D20434F524520302100005375636365737320203A20436F727465782D4D3085
:405F80002B202D20424C4520636F6E74726F6C6C657220696E697469616C697A6174696F6E0D00004661696C75726521203A20436F727465782D4D302B202D20424C4520F0
:405FC000636F6E74726F6C6C657220696E697469616C697A6174696F6E0D00006D61696E5F636D30702E6300030000000100000001000000000000000503600004000000D2
:40600000010000000000000001000000060460000800000030150008090500100300180003000000F4010000140004010A00090508000000630100000300000000000000CE
:4060400000000000680000000000000000000000000000001212000000000000000000000000000000000000000000BA0000000000000000000000000000000000001D1DA0
:40608000DC070010E8070010F4070010000800100C0800101808001024080010300800105C08001066080010700800107A080010840800108E08001098080010A20800103B
:4060C00047656E6572617465645F536F757263655C50536F43365C70646C5C647269766572735C7065726970686572616C5C737973696E745C63795F737973696E742E6303
:406100000000000047656E6572617465645F536F757263655C50536F43365C70646C5C647269766572735C7065726970686572616C5C6970635C63795F6970635F64727684
:406140002E68000047656E6572617465645F536F757263655C50536F43365C70646C5C647269766572735C7065726970686572616C5C6970635C63795F6970635F647276AE
:406180002E63000047656E6572617465645F536F757263655C50536F43365C70646C5C647269766572732F7065726970686572616C2F6970632F63795F6970635F647276FA
:4061C0002E68000047656E6572617465645F536F757263655C50536F43365C70646C5C647269766572735C7065726970686572616C5C6970635C63795F6970635F70697031
:40620000652E630047656E6572617465645F536F757263655C50536F43365C70646C5C647269766572735C7065726970686572616C5C737973636C6B5C63795F7379736355
:406240006C6B2E630000000047656E6572617465645F536F757263655C50536F43365C70646C5C647269766572735C7065726970686572616C5C737973636C6B5C63795F65
:40628000737973636C6B2E680000000047656E6572617465645F536F757263655C50536F43365C70646C5C647269766572735C7065726970686572616C5C7363625C63791E
:4062C0005F7363625F756172742E680047656E6572617465645F536F757263655C50536F43365C70646C5C647269766572735C7065726970686572616C5C7363625C6379C5
:406300005F7363625F636F6D6D6F6E2E6800000047656E6572617465645F536F757263655C50536F43365C70646C5C647269766572735C7065726970686572616C5C736351
:40634000625C63795F7363625F756172742E630047656E6572617465645F536F757263655C50536F43365C70646C5C647269766572735C7065726970686572616C5C677048
:40638000696F5C63795F6770696F2E630000000047656E6572617465645F536F757263655C50536F43365C70646C5C647269766572735C7065726970686572616C5C677036
:4063C000696F5C63795F6770696F2E680000000047656E6572617465645F536F757263655C50536F43365C70646C5C647269766572735C7065726970686572616C5C7379DC
:4064000073706D5C63795F737973706D2E63000047656E6572617465645F536F757263655C50536F43365C70646C5C647269766572735C7065726970686572616C5C7072A5
:406440006F745C63795F70726F742E630000000047656E6572617465645F536F757263655C50536F43365C70646C5C6D6964646C65776172655C626C655C63795F626C6597
:406480005F68616C5F7076742E63000000000000000000000000000066666666000000000000FFFF000000001C1C1C1C1C1C1C1C00000000000000000000000066E6EE66E8
:4064C000000000000000FFFF000000001C1A1A1A1A1A000000000000000000000000000066E66666000000000000FFFF000000001A1A001C00000000000000000800000092
:406500000800000000020000000000000000000000000000000000000000000000000000000000000B000000000000000000000000000000000000007C0100003101000097
:40654000090901120C00FF0380ABCDABCD80409C1B04041BFFFFFFFF000000000410080007070400F216FBE0FBE01F60427EF56D720096BE2090000010502604060037D741
:40658000F401FA00960064004B0032001E00140003040506020D110015FC001079FB0010CB010110C9FC00107BFD0010770101108F01011051020110F5FD00105DFE001037
:4065C00039000110670001109F020110650101103302011033020110330201100D010110B5000110F9000110C1370110CD370110F5460110DD470110E9470110C5FC00103E
:4066000013FC00100F02011079FD0010B3FD001087010110A90101109D02011059FE0010B5FE0010530001108D0001100B0301106F0101109D0201109D0201109D020110F3
:406640005D0101109D0201109D0201109D0201109D0201109D0201109D0201109D0201103B180110431801103F180110391801101718011013180110311801102F18011013
:406680000B1801100F18011047180110331801102D1801104B1801104B1801100918011037180110292F0110DD320110A13001104D2E01105D210110111E0110E1280110F2
:4066C000252401107D190110E1190110353401106D2C0110BD230110911D01106D280110A97B00101D2D0110D5340110513801109D390110713A01108D36011031350110E3
:40670000D9370110113601103B3601104B3601104D36011051360110330201103D3601104736011045360110F54A0110ED440110614A0110114A0110AD4A0110F5470110AD
:4067400001470110994701105D48011045E000100F450110054501100B450110094501100D450110074501103302011033020110330201100DCF0010DD5D0110BF5D01106E
:40678000BF5D0110BF5D0110F55D0110019B0110BF5D0110F19A0110099B0110F99A0110776201106F620110D9610110D1610110CF5D0110B75D0110AD5D0110D35D011035
:4067C000C9610110F9610110C75D0110F161011051620110BF5D011001620110E9610110E1610110BF5D0110FD5D0110055E01100D5E0110C35D0110C35D0110DD5D011013
:40680000BF5D0110BF5D0110BF5D0110F55D0110019B0110BF5D0110F19A0110099B0110F99A0110776201106F620110D9610110D1610110CF5D0110B75D0110AD5D0110C8
:40684000D35D0110C9610110F9610110C75D0110F161011051620110BF5D011001620110E9610110E1610110BF5D0110FD5D0110055E01100D5E0110C35D0110C35D01109C
:4068800051840110458401105D840110C35D0110C35D0110DD81011019820110E98101100D82011001820110F5810110258201103182011039840110398601103D86011085
:4068C00049860110218601102D860110C35D0110C35D0110C35D0110C35D0110C35D0110C35D0110C35D0110C35D0110C35D0110C35D0110C35D0110C35D0110C35D0110BF
:40690000C35D0110C35D0110C35D0110C35D0110C35D0110C35D0110C35D0110C35D0110C35D0110C35D0110C35D0110C35D01103D8201107B7801102977011029770110D5
:4069400029770110AD7801103D7801102977011021780110ED78011037780110C7780110BD780110AB7601102977011029770110297701102F7601100B78011055760110D8
:406980008D780110B3770110C37701103D7701102977011003790110797701106B77011029770110F77701103B79011029770110297701102977011001840110F58301101D
:4069C0000D840110C17701105B770110298101106581011035810110598101104D81011041810110718101107D810110E9830110D9850110E5850110F1850110C18501105C
:406A0000CD85011029770110297701102977011029770110297701102977011029770110297701102977011029770110297701102977011029770110297701102977011094
:406A40002977011029770110297701102977011029770110297701102977011029770110297701102977011089810110AB7B0110D97A0110D97A0110D97A0110EF7B011033
:406A8000557B0110D97A01109D7B01109D7B0110477B0110057C0110F37B0110557A0110517A0110357B0110E9790110DB790110DB790110ED790110CF7B0110097B01103A
:406AC0001D7B0110DD7A0110D97A0110397C0110F57A0110E17A0110D97A0110397B0110557C0110517C0110D97A0110D97A01102D83011021830110398301107D7C011071
:406B0000D77901107180011079800110858001109180011079800110798001109D800110A980011015830110E5840110F1840110FD840110CD840110D9840110D97A0110C5
:406B4000D97A0110D97A0110D97A0110D97A0110D97A0110D97A0110D97A0110D97A0110D97A0110D97A0110D97A0110D97A0110D97A0110D97A0110D97A0110D97A0110D5
:406B8000D97A0110D97A0110D97A0110D97A0110D97A0110D97A0110D97A0110D97A0110B580011008000000060F0020200107021900000007070E05020220001C1202007A
:406BC0000103000E0306000400402707000007070102000203070304000000000000000000000000000000000000000000000000000800007B780110297701102977011076
:406C000029770110AD7801103D7801102977011021780110ED78011037780110C7780110BD780110AB7601102977011029770110297701102F7601100B7801105576011015
:406C40008D780110B3770110C37701103D7701102977011003790110797701106B77011029770110F77701103B790110297701102977011029770110AB7B0110D97A0110DE
:406C8000D97A0110D97A0110EF7B0110557B0110D97A01109D7B01109D7B0110477B0110057C0110F37B0110557A0110517A0110357B0110E9790110DB790110DB7901105C
:406CC000ED790110CF7B0110097B01101D7B0110DD7A0110D97A0110397C0110F57A0110E17A0110D97A0110397B0110557C0110517C0110D97A0110D97A0110080000004D
:406D0000060F0020200107021900000007070E05020220001C1202000103000E032000800000C00000000004000000A822000000000000040000F7FFFF7F0000003000007B
:406D40000000000000000000000000000000000000000000000000000000000000000000097F0110C180011029800110697F0110CF80011051800110397F0110DD800110FC
:406D800035800110677F0110E18001104D800110517F0110CF800110458001103B7F0110CF8001103D8001107F7F0110ED80011059800110857F0110FD80011061800110AA
:406DC00029770110D97A0110C35D011029770110D97A0110C35D011029770110D97A0110C35D011029770110D97A0110C35D011029770110D97A0110C35D01102977011084
:406E0000D97A0110C35D011029770110D97A0110C35D011029770110D97A0110C35D0110937F0110158101106980011029770110D97A0110C35D011029770110D97A011012
:406E4000C35D011029770110D97A0110C35D011029770110D97A0110C35D011029770110D97A0110C35D01104D8201105D830110038301104B82011051830110FB82011056
:406E800073820110A98301100B8301104982011045830110F382011029770110D97A0110C35D011029770110D97A0110C35D011029770110D97A0110C35D01102977011032
:406EC000D97A0110C35D011029770110D97A0110C35D0110898401104585011000000000978401105985011035490110A58401108385011065490110698401100985011065
:406F0000E945011077840110278501100546011030303031423830303031303230333034303530363037303830393041304230433044304530463130313131323133313421
:406F40003135313631373138313931413142314331443145314632303231323232333234323532363237323832393241324232433244324532463330333133323333333493
:406F800033353336333733383339334133423343334433454142000026002B00300036003C0043004B0055005F006A00770086009600A800BD00D400EE000B012B014F010D
:406FC0007801A601DA01130254029D02EE024A03B1032404A5043605D9058F065C0742084409650AAA0B160DAF0E79107C12BD1445171C1A4B1DDE204C3B00101A3A001043
:40700000203B0010103A0010203B00102A3B0010203B0010103A00101A3A00101A3A00102A3B0010103A0010063A0010063A0010063A00107C3D0010784100103840001045
:407040003840001036400010504100105041001042410010364000105041001042410010504100103640001058410010584100105841001058430010430000004002000819
:4070800000000000000000000000000000000000000000000000000000000000000000000000000000000000000000000000000000000000000000000000000000000000D0
:4070C0000000000000000000000000000000000000000000000000000000000000000000232D302B2000686C4C006566674546470030313233343536373839414243444545
:40710000460030313233343536373839616263646566000000000000F8B5074600256846058078683C1D30492E46002807D06268002A06D0800702D1207A800701D00D46C7
:407140004FE0FBF7C9FDFBF71DFEFBF7E5FD00F035F900283DD1788C0006C00F00F0ACF905460004000C34D12049084600F0ECFE0004000C2DD12289A17A20681C4C0028A8
:4071800006D02060A280E68021810021FDF7C6FE684601F033FD054616486B460078E2888000001DC1B21B88A088D418A04206D3C01A801A80B201F0D3F9044600E00E4C02
:4071C00000F076FD002C04D100F086FB0B480121817000F001F9002D03D001F0A9FB074806702846F8BD00000100160091730010C415000800160008FFFF000004010008B8
:4072000010B5094CA07801280AD06078012806D12078002803D101F066FB0020607010BD01F03EF810BD00000401000810B5FBF7DFFC032801D100F02DFE00F0F5F901F024
