:020000041008E2
:4000000000780408F90208100D0000006103081061030810610308106103081000000000000000000000000000000000713C08105D03081000000000113D0810753D0810BF
:400040005D0308105D0308105D0308105D0308105D0308105D0308105D0308105D0308105D0308105D0308105D0308105D0308105D0308105D0308105D0308105D03081000
:400080005D0308105D0308105D0308105D0308105D0308105D0308105D0308105D0308105D0308105D0308105D0308105D0308105D0308105D0308105D0308105D030810C0
:4000C0005D0308105D0308105D0308105D0308105D0308105D0308105D0308105D0308105D0308105D0308105D0308105D0308105D0308105D0308105D0308105D03081080
:400100005D0308105D0308105D0308105D0308105D0308105D0308105D0308105D0308105D0308105D0308105D0308105D0308105D0308105D0308105D0308105D0308103F
:400140005D0308105D0308105D0308105D0308105D0308105D0308105D0308105D0308105D0308105D0308105D0308105D0308105D0308105D0308105D0308105D030810FF
:400180005D0308105D0308105D0308105D0308105D0308105D0308105D0308105D0308105D0308105D0308105D0308105D0308105D0308105D0308105D0308105D030810BF
:4001C0005D0308105D0308105D0308105D0308105D0308105D0308105D0308105D0308105D0308105D0308105D0308105D0308105D0308105D0308105D0308105D0308107F
:400200005D0308105D0308105D0308105D0308105D0308105D0308105D0308105D0308105D0308105D0308105D0308105D0308105D0308105D0308105D0308105D0308103E
:400240005D0308105D0308105D0308105D0308105D0308105D0308105D0308105D0308105D0308105D0308105D0308105D0308105D0308105D0308105D0308105D030810FE
:400280005D0308105D0308105D03081010B5054C237833B9044B13B10448AFF300800123237010BDD874020800000000BC550810084B10B51BB108490848AFF300800848BE
:4002C000036803B910BD074B002BFBD0BDE81040184700BF00000000DC740208BC55081050460208000000007047EFF3108072B6704780F310887047FFF7F6FF72B6114C52
:40030000114DAC4209DA21686268A368043BA2BFC858D050FAE70C34F3E70C490C4A00209142BCBF41F8040BFAE70A480A490860BFF34F8F00F0C0FA00F09AFA00F07AF9E5
:40034000FEE70000D4380910EC380910D874020804A902080040020808ED00E0FEE7FEE700B504207146084202D0EFF3098001E0EFF30880043001F03BFAFEE710B544F2A4
:400380000503984200F0A2800C4624D843F2120398426FD00CD841F20403984200F0BD80B0F5005F62D0B0F5805F40F0B98038E044F2020398427DD004D844F201039842E6
:4003C0005BD010BD44F20303984277D044F20403984277D010BD44F2140398427ED00DD844F2070398422DD036D344F2080398421DD044F2090398426CD010BD45F202039A
:4004000098427BD004D845F20103984272D010BD45F20303984278D045F21703984278D010BD404803F050FE3F4809F003FE3F4803F04AFE0021084601F032FC002000F04E
:400440004FFA10BD394803F03FFE6378364880F841300BF063FA10BD344803F035FE344B1B78002B5CD103F0AFFD10BD2F4803F02BFE10BD01F05CF910BD2C4803F024FEDA
:400480002C4B1B685B6A1A78102A01D10522DA70284B1B685A6A61795171586A0BF0C2F900283DD00BF0F6F9224B1B68586A0BF0B9F910BD1D4803F007FE10BD1B4803F0D5
:4004C00003FE10BD194803F0FFFD10BD174803F0FBFD10BD154803F0F7FD10BD134803F0F3FD42222146104803F081FD12480BF0EBF910BD0D4803F0E7FD10BD0B4803F0D2
:40050000E3FD002000F0ECF910BD084803F0DCFD10BD064803F0D8FD10BD044803F0D4FD10BD00BF944908108C420208AC4908105DA80208D07602086443020808B50548BD
:4005400003F0C2FD044803F023FD642002F0C0FFFBE700BFD04908107D0308100222014BDA6070478000324010B584B0214803F0ABFD214B0093002301224FF47A711F48A1
:4005800003F0AEF91E4B18604FF0FF320DF10F011C4B186802F0E4FB0128F5D19DF80F30012B0FD013B1022B18D0EDE7144B1868002200921346032103F0ACF90222124BE6
:4005C0005A60E1E70E4B1C6802F086FE0023009302460121204603F09DF9D5E7084B1868002200921346032103F094F90222064B9A60C9E7E44908105D050810FC4908109C
:4006000048A802084CA802088000324070B50C461646002507E02178054800F03DFD0128F9D101340135B542F5DB304670BD00BF0000664000B583B062B61C4C1C4A1D4980
:40064000204600F03DFD236843F0004323601A4803F03AFD002201210A2002F021FA174B186000220121084602F01AFA144B186000240194012300932346802211491248E7
:4006800002F0B0FD01940223009323464FF480620E490F4802F0A6FD02F0D6FD0D4803F013FD3F210C4801F093F8FEE700006640C8A8020838500810144A081044A802081F
:4006C0004CA80208284A081069050810384A08103D050810444A08106C4A0810704700BF5C4AD2F8803303F00F0303F1D00152F8212002F00702032A04D0042A05D092B94C
:40070000554914E0554A116811E003F1C002514951F8222002F01F02112A06D0132A04D04FF4FA4103E04E4901E04FF400418BBB484BD3F8902502F00100D3F88825C2F338
:400740000172D3F8883513F0405F07D0414BD3F88835C3F30173012B02D102E0012300E0002303B108B9032A46D13A48D0F88025C2F31103D0F88425C2F30C02D0F88005CD
:40078000C0F300600130B1FBF2F202FB03F2B2FBF0F131E0012B2FD12E4BD3F8402602F00100D3F80026C2F30172D3F8003613F0405F07D0274BD3F80036C3F30173012BAF
:4007C00002D102E0012300E0002303B108B9032A12D12048D0F8002602F07F02D0F80036C3F30423D0F80006C0F3044002FB01F2B2FBF3F2B2FBF0F1164BD3F88033C3F38A
:40080000011321FA03F215494A601648D0F89030C3F3072301330069000E0130B2FBF0F08860B2FBF3F3CB600B6103F5742202F23F220D48A0FB0202C2F387420A7503F282
:40084000E7330A4AA2FB03239B098B61DB03CB61704700BF0000264000127A00D042020800366E010000214083DE1B43D34D621008B5104BD3F8802122F0404242F08042C6
:40088000C3F88021D3F8802142F00042C3F88021D3F8802122F00102C3F88021FFF71EFFFFF71EFF00F028F800F02EF800F038FE08BD00BF0000264008B5FFF716FD074A50
:4008C000D2F8883043F47003C2F88830BFF34F8FBFF36F8FFFF70DFD08BD00BF00ED00E0014B1870704700BFF474020808B5012000F058FB08BD00BF08B50022114604200E
:4009000000F0C0F808BD00BF10B5064800F076F900F0CBFF0446044800F0DCF9204600F0C8FF10BDF8740208784A081038B50C4B9A680C4B9A420ED10D46044619B9FC21E6
:40094000094800F045FF04F11003064A52F8230042F8235038BD1030044B53F8200038BD00ED00E000400208AC4A08100000081070B338B504460D464368072B03D93621A2
:40098000154800F025FFB4F900306268002B08DB5201D2B203F1604303F5614383F8002305E003F00F035201D2B20C49CA540C4B9A680C4B9A420DD11DB94521064800F051
:4009C00007FF2946B4F90000FFF7B0FF002038BD05487047002038BDAC4A081014ED00E000ED00E0004002080100560038B50369002B0DDA0D4604460B0C1B0423B140F261
:400A0000B321044800F0E4FEA9B26160002038BD014838BDF04A081001008A0038B50368002B01DA002300E0094B73B90D460446C2600B0C1B0423B140F29A21054800F0A4
:400A4000C7FEA9B2A160002038BD014838BD00BF01008A00F04A081038B504460D4619B99921064800F0B4FE2369002B03DAE3682B60002038BD024838BD00BF304B081050
:400A800001008A000F2840D8F8B515460E46044682B979B90F2804D940F2A911214800F097FE600100F1804000F50C101E4B18600020F8BD5DB366B316F01F0F2BD10F2CEE
:400AC00004D940F2A911174800F082FE640104F1804404F50C14144F3C607E60BD60F2080021284603F08EFA00212046FFF77EFF3A4652F8040B0021FFF790FF68B900216E
:400B00003868FFF773FF50B9F8BD084870470748F8BD0648F8BD0548F8BD0548F8BD0448F8BD00BF704B08107876020803018A0001018A002DE9F0411B4B1B68DC68236839
:400B400083422CD90D464609A0EB4610012303FA00F819B900F0A9FE074600E00027124B18680368002B01DA002300E00F4B83B9626852F8263018EA030F05D023EA080300
:400B800042F82630002400E0094C0021FFF72EFF00E0084C25B9384600F08BFE00E0064C2046BDE8F08100BF7876020801008A00020188000301880004018A000B4B1B6890
:400BC000DB681A6882420CD94109A0EB4110012202FA00F05B6853F82130184203D004487047044870470448704700BF787602080101880004018A0000018800024B1B6894
:400C00000BB9014B18607047847602082DE9F8430446884691461E46089F2A4B1B681BB9B421294800F0D4FD072C03D9B521264800F0CEFD234B1B682C2000FB04F01C18E5
:400C4000F5B21D50C6F307236360360CA6600F2D04D940F2A9111D4800F0BAFD6D0105F1804505F50C15256165680F2D04D94FF4E271164800F0ACFD154B03EB45156561B6
:400C8000A668330C1B0423B14FF4F1710F4800F09FFD330C1B0423B140F2E3110B4800F097FDB3B243EA0646AE60C4F81C90C4F820800023A36117B1B7F90030A381BDE8F5
:400CC000F88300BF84760208B04B0810704B081000102340F0B58FB0044618B950212C4800F076FDA369072B03D95421284800F06FFDE36A1BB95621254800F069FDE36815
:400D0000072B03D95721224800F062FD236A072B03D958211E4800F05BFD236B1BB959211B4800F055FD07AE04F114050FCD0FC62F6802AD26460FCE0FC533682B60079B92
:400D40001933ADF83030089B0D93A26AE16A0CAD00953B460A98FFF759FF00210091069B0A460598FFF752FF216B2846FFF700FEBDF93030002B08DB590903F01F03012296
:400D800002FA03F3034A42F821300FB0F0BD00BFB04B081000E100E0F8B506460F461D4614461AB9FD21264800F012FD254B1B681BB9FE21224800F00BFD072E03D9FF2188
:400DC0001F4800F005FD072F04D94FF480711C4800F0FEFC1B4B1B682C2101FB063001FB07314B68012202FA03F31B04466802FA06F60269EAB18F69EFB91268002A01DAB7
:400E0000002200E0104AC2B92288134323600369DC6001238B614D620469330C1B0423B140F29A21094800F0D3FCB2B2A2600020F8BD0748F8BD0748F8BD0648F8BD00BF50
:400E4000B04B08108476020801008A00704B081004028A0007028A00F8B505460F461646124B1B6823B940F26111114800F0B0FC072D04D94FF4B1710D4800F0A9FC0B4B26
:400E80001B682C2404FB0534236A23B94FF4B371074800F09DFCE369B34204D9236A43F826700020F8BD0348F8BD00BF84760208B04B08100A028A0038B504460D460B4BE2
:400EC0001B6823B940F29311094800F081FC072C04D94FF4CA71064800F07AFC034B1B682C2202FB0434A56238BD00BF84760208B04B081070B582B000230193044620B966
:400F00004FF4EA71264800F063FC236923B940F2D511234800F05CFC636923B94FF4EB711F4800F055FC236A23B940F2D7111C4800F04EFC6369DD682A0C1CD012041A6050
:400F40001B6820690369002B15DA01A9FFF784FD60B9019803681E0CDBB2E269934206D2226A52F8233013B1984700E0002631462069FFF73BFDADB275B16369ADB21D60C5
:400F80001B68636A1BB198470023636202E0A36A03B198470023A36163691B6802B070BDB04B081010B504460B4B1B6823B94FF4DA710A4800F00CFC072C04D940F2B511C0
:400FC000064800F005FC044B1B682C2000FB0430FFF790FF10BD00BF84760208B04B081010B50446134B1B6823B940F22D21124800F0EEFB072C04D940F22E210E4800F0E7
:40100000E7FB0C4B1B682C2202FB0434B4F90C30002B0DDB5A0903F01F03012101FA03F32032064941F82230BFF34F8FBFF36F8F002010BD84760208B04B081000E100E0B9
:4010400010B50446114B1B6823B940F24D21104800F0BEFB072C04D940F24E210C4800F0B7FB0A4B1B682C2202FB0434B4F90C30002B08DB590903F01F03012202FA03F380
:40108000044A42F82130002010BD00BF84760208B04B081000E100E0036813F4006F01D0802200E04022D0F80832C3F30803934203D0C0F84012012070470020704700BF5A
:4010C000002800F0A98170B50546002900F0A6819E4B984200F0A48116460C460B78022B03D942219A4800F073FB637B023BDBB2062B03D94321964800F06AFBA37B3BB1F3
:40110000022B05D0032B03D04421914800F060FB94F82130012B03D945218D4800F058FB94F82830012B03D94621894800F050FB2378012B06D86368083B082B94BF002305
:40114000012307E0A37F2BB16368013B062B94BF002301231BB148217D4800F039FBA368053B042B03D94921794800F031FB6369FF2B03D94A21764800F02AFBA369FF2B93
:4011800003D94B21724800F023FBA37C6BB1237833B9A368092B05D1A37B2BB1012304E0012302E0012300E000231BB14D21684800F00EFB636B23F4366323F00D031BB1C9
:4011C0004F21634800F004FBE36B23F4EE6323F003031BB150215E4800F0FAFA2378022B01D1A37F13B163685A1E00E00022237F13B14FF4803100E00021A068082802D81D
:401200004FF4006300E00023194302F00F030B4343F000732B60236B2A6812F4006F01D0802200E04022934203D36521484800F0CFFAA36B2A6812F4006F01D0802200E0FA
:401240004022934203D36621414800F0C1FA636A2A6812F4006F01D0802200E04022934203D367213A4800F0B3FA23781B0603F040732B64637F0BB1402200E00022A17CBB
:4012800011B14FF4806300E000231343227C12B14FF4807200E000221343627C12B14FF4007200E000221A43E36A013B1B0403F470231343627B013A02F007021343A27B3C
:4012C000120102F030021343AB64237B13B14FF4807200E00022E17B21B92378022B03D1012302E0012300E0002313B14FF4007300E000231A43A368013B03F00F0313433E
:40130000C5F80033227DA3691B0403F47F031343C5F81033E26AD5F8003303F00F0303339A4201D3102A03D97D21094800F050FAE37F23B12378012B03D0002302E00023B6
:4013400000E0012333B14FF4807204E000006940744C08100022637B013B03F007031A43A37B1B0103F0300313436B64237B13B14FF4807200E00022A368013B03F00F03EB
:4013800013432278012A02D14FF4803200E000221343C5F8003294F83030C5F8043394F8203013B14FF0007100E0002194F82120012A02D14FF0807300E000230B4394F8F8
:4013C0002820012A02D14FF4803200E00022134394F8242013432B6594F83830C5F80432636B23F4926323F002031B051B0DC5F8C83FE36B23F08C035B055B0DC5F8883F83
:4014000086B1002070603060B060F0603062F0623063054B736370BD04487047034870BD024870BD002070BDEFCDAB000160AA001F4B98422DD00CD840282ED003D8E8B11B
:40144000102828D02FE0802829D0B0F5807F28D029E0184B984228D006D8B0F1204F0DD0154B984212D01EE0144B98420AD00133984209D0023B984215D101E0002070471E
:401480000F4870470F4870470F4870474FF4A0007047074870470D4870470D4870470D487047034870470C4870474FF4A400704706005200010000F0090000A0040000F0AD
:4014C000010052000200520003005200010050000200500005005200FF00520008B50C4B1B69002B12DB0B4B1868FFF7A1FF0122094BC3F88C24084BD3F80C34002BFAD153
:40150000054BD3F88C34002BF5D108BD034808BD2000234088760208000025400200500000B583B05523ADF80030002301930C496846FFF71DFABDF90030002B08DB590976
:4015400003F01F03012202FA03F3064A42F82130022205490120FFF77FFC03B05DF804FBD146020800E100E0A546020838B5044600F09BF92CB1184B5B681F2B03D900237D
:4015800002E0002300E001231D460BB3E368E3B12368E3B1104B99680B46002203E0A34204D01A465B69002BF9D100E000257DB111B9094B9C6000E0546122610023636133
:4015C000054A53680133536002E0002500E0002500F06FF9284638BD9876020838B5044600F063F9144B5A680AB399680B4602E0A34204D05B69002BFAD1002500E00125E8
:40160000B5B1A14206D14B695BB10B498B600021196106E019695C694C61596909B11B690B61013A044B5A6012B99A6000E0002500F03FF9284638BD9876020870B584B0A0
:4016400005460E46042804D940F69501284800F0BFF8731EDBB2012B08D9042E06D0082E04D040F69601224800F0B2F8042E01D0012E1CD11F4B9C68002013E023799D42B6
:401680000FD1A3680BB133420BD1E3685A6802929B68039304A800F80C6D23689847154BDC6064690CB3144B9842E7D11DE0114BDC68022E01D104B12469002011E02379CA
:4016C0009D420DD1A3680BB1334209D1E3685A6802929B68039304A800F80C6D23689847246914B1044B9842E9D104B070BD00BFB44C081098760208FF00420008B500F063
:40170000D4F8094B5B6813F4003F0AD1064B5A6822F47F425A605968044A0A435A605A685A6000F0C6F808BD00002640003A028038B5154B5B682BB101210220FFF77EFF37
:40174000044600E00024C4B900F0AFF80E4B5B681BB104210220FFF771FF0C4D6A680C4B134043F01B036B60FFF7C8FF6A68094B13436B606B6830BF04E002210846FFF770
:401780005DFF054C204638BD98760208000026400000FC0F003A0280FF00420010B5044605E0084B186800F077F8A4F50044B4F5004FF6D8044B186800FB04F000F06CF8C0
:4017C00010BD00BFEC420208E842020801BEFEE738B50D46044C18220146204602F07CFCA5610020FFF7F2FFF04A0208FEE700BF08B50268254BDA6142681A6282685A62D9
:40180000C2689A620269DA6242691A6382695A63C2699A631E4A916AD963D16A1964516A5964516B9964926BDA64F1EE103A13F0900F27D0026A154B1A65426A5A65826ABC
:401840009A65C26ADA65026B1A66426B5A66826B9A66C26BDA66026C1A67426C5A67826C9A67C26CDA67026DC3F88020426DC3F88420826DC3F88820C26DC3F88C20026E5E
:40188000C3F89020FFF7B2FF08BD00BFF04A020800ED00E0000000000230800803D001300238FCD100BF00BF7047EFF3108072B6704780F31088704710B50378012B02D036
:4018C000082B29D02EE01B4B1B78012B2CD00320FFF774F9184B984228D0FFF7E6FF174B1860022003F096FF044603F09EFF022C05D1032805D0052805D1002404E0104C2E
:4019000002E0002400E00E4C0D4B9C420FD10B4B1868FFF7CEFF0AE0084B1868FFF7C9FF002404E0064C02E0054C00E0044C204610BD00BF54A8020801018800C8760208B6
:40194000FF00420008B50378022B1CD0082B14D0012B1ED1124B1B78012B1CD0FFF7A5FF104B5860022003F055FF022815D00D4B5868FFF79EFF0C4808BD0A4B5868FFF7A7
:4019800098FF002008BD074B5868FFF792FF064808BD054808BD044808BD002008BD00BF54A80208C8760208FF00420010B5044C2046FFF713FE04F11800FFF70FFE10BD4A
:4019C000F442020810B5A0B10C4A9060C36A03B1D36000240A4B1C700A4B1C700A4B1C600A4B1C7000F054F9094B1C70094B1C7000E0094CFEF788FF204610BDC876020876
:401A000064A8020868A802086CA8020869A8020853A8020858A802080100160010B590B0354B0CAC186859689A68DB680FC42822002102A802F0E6FA304B02930CAB04933C
:401A400042F65413ADF8143004238DF816302C4A92681269069241F2960207921B22ADF82020ADF8222003228DF824208DF8253006238DF8263010238DF827308DF8283044
:401A80008DF829307223ADF82A3001238DF82E301C4C2046FFF76AFD04F11800FFF766FD03F0B6FE08A803F00BFF034600BB164B039302A803F0CCFE0346B0B90122134B33
:401AC0001A700023124A1370124A13700C4B9B681A6A00929B6ADB88ADF804300823ADF8063068460CF06AFD034600210A4A1160184610B010BD00BFF44C08105D200810ED
:401B0000C8760208F4420208844B020854A802085CA802085DA802086CA8020808B504F085FF08BD08B5044B1B689847034B1B6803B1984708BD00BFF4760208D8760208E7
:401B400008B510B1034A52689047034B1B6803B1984708BDF4760208D876020870B5C0B006460C4615464FF480720849684602F03EFA05E016F8012B6A401DF80250013CBB
:401B8000002CF7D1284640B070BD00BF044D081008B50022FFF7E2FF08BD00BF08B5FFF784FE08BD08B5FFF784FE08BD08B50120FFF746FA08BD00BF08B5FFF7F7FF08BD4A
:401BC00008B50120FFF70CFA08BD00BF08B5FFF7F7FF08BD08B5094B58601960012208491046FFF739F9034628B9002205490120FFF732F90346184608BD00BFF47602086A
:401C0000411B0810251B081038B515460B46024601210020FFF7C0F8044618B129460120FFF74AF9204638BD704700BF704700BF00207047004870471100160000487047E8
:401C40001100160000487047110016000048704711001600004870471100160000487047110016000048704711001600004870471100160000487047110016000048704734
:401C8000110016000048704711001600704700BF08B5024800F0C8FD08BD00BF1C440208F8B5022872D8002972D10022134606E03B4CE45C012C01D90132D2B20133002BE5
:401CC000F6D0012A0CD1374B1B681C6801EB8102930023445B681B79023BDBB2012B59D8314B1B78002B57D1304B1970E0B92D4F3C68236801EB8105AA009D186668C1EBB1
:401D0000C1014B001E44B18829822168114449686468E45A0C8039680C682244526849680B445B8853801EE001281CD11D4F3C68236801EB8105AA009D186668C1EBC10184
:401D40004B001E44B1892982216811444D68616819440989298039680C682244526849680B445B895380124B18700E4B1B6818680E4B1B7803EB83039A00104408F0B8F8BA
:401D8000034650B90121084A117006E0094B04E0084B02E0084B00E0084B1846F8BD00BF5CA80208D07602085DA8020852A8020869A802080100160002001600FF00160061
:401DC00070B439B9144B1B681B689968CE7F00231D460EE0104B1B681B68D968CE7FF6E7CA5C52B10133CC5C1B2C01D0134400E00125B34201D2002DF2D05DB101338279EC
:401E0000CA54002204E0D4180134855C0D550132052AF8D970BC7047D076020870B504460CF0E6FB054620BB134B1968086A228902EB82029300143B03445A6812F0007F69
:401E400017D0E67B1B695A68CB69D21A06EB4606B318A28821680948184402F0C8F8E37B074AD35C012B04D1064A137843F002031370284670BD00BFD076020860A8020869
:401E800058A8020853A8020830B587B002891A4B1B685B699B889A4229D1044601AB07C883E807000022ADF81020A289ADF8122040228DF814201846FFF7B0FF054680B9F5
:401EC00023681B7803F002039BB22BB10B4B1B6821460B48984704E0084B1B68214609489847094A137803F0FE03137000E00025284607B030BD00BFD0760208D476020811
:401F0000050001000600010064A802084288531E9BB2112B1AD84178D1B910B40F4B1868046A02EB82029300143B23445A6812F0007F0FD01B695A68C369D31A01EB410110
:401F40001944074B5B5A1380002004E0012070470120704700205DF8044B7047D076020860A8020800B583B00023ADF804308389ADF800300389ADF8023012238DF80430C3
:401F8000084B1B7813F0010F09D129B18DF8051068460BF059FC02E0C0680BF075FC03B05DF804FB64A8020810B4044688B10023194606E0104A52F82320944200D10121EA
:401FC00001330D4A1279934206D20029F2D0002003E00021094800E0002050B949B9064B1B792BB9044A42F823400133137100E003485DF8044B704770A802080100160088
:402000000300160070B506460D460020044606E0084B53F824302946304698470134054B1B799C4204D2044B1B7813F0010FEFD170BD00BF70A8020864A8020883792BB13F
:4020400000207047C25C32B9013300E00023052BF8D9002070470120704700BF70B58CB004460D46BB4A137843F00103137044F20A03984200F0ED813BD842F204039842EF
:4020800000F0DD8019D841F20203984200F0048108D8B0F5805F6AD041F20103984200F0F88033E341F20303984200F02E8141F20403984200F0258328E344F206039842AC
:4020C00000F015820AD843F21203984200F0AC8044F20403984200F02B8117E344F20703984200F0B98144F20803984200F0FB810CE345F20E03984200F0EF821BD845F223
:402100000203984200F07D820AD844F21003984200F0A28145F20103984200F02782F5E245F20303984200F0858245F20C03984200F0AC82EAE245F21403984200F0D682AC
:402140000AD845F20F03984200F0CA8245F21003984200F0C882D9E245F21703984200F0C88246F20103984200F0FD81CEE27A4B1E683046FFF762FF60B1304608F0F4FEE3
:40218000754E00213068FFF71BFE01213068FFF717FE37E0714B1A68936A1B791BB34FF0B05191F8043603F03F0391F8050600F03F0043EA801391F8030600F01F0043EA92
:4021C000003391F8001601F07F0143EA4143126B1370624A1168096BC3F3072048701268126B1B0C93705D4E3368186B08F0BCFE33680021186BFFF7E3FD33680121186BCC
:40220000FFF7DEFD554B1B68986A023009F06EFB534A05AB1068516803C305A808F0C8FE0222504B1A7071E200234E4A13704E4A13700A20FFF7B2FAFFF7B8FB66E24B4B1D
:402240001B6813F0010F40F061820023ADF814308DF81630414E33689B6A93F900308DF8143005A808F0BEFE33689B6A93F901308DF8143001238DF81530FF238DF81630C8
:4022800005A808F0AFFE394A136843F0010313603CE2FFF7B7FE39E24978354B1B88ADF81430002319E0334A32F81320ADF808209DF8092012B93048825C00E00022012AA4
:4022C0000AD92C4A12F81320914205D1294A32F81330ADF8143002E00133002BE3D09DF81530FF2B05D104D14FF472712348FFF76FFABDF81430ADF82030ADF81C30C3F3AE
:40230000072329781E4AD15400E20B78002B40F0FD810B7A33B91B4B0022DA809A801A4A1A604B600B4A137803F0FE031370EDE149790F4B1B88ADF81430002335E00D4AB5
:4023400032F81320ADF80C209DF80D20F2B90A48825C1CE064A8020824430208D0760208044E081054A802085DA802086CA802080C4E081050A802085CA80208104E08102A
:4023800068A8020814770208D87402080022012A0AD9AD4A12F81320914205D1AA4A32F81330ADF8143002E00133002BC7D09DF81530FF2B05D104D14FF47271A348FFF733
:4023C00007FABDF81430ADF82430ADF81430C3F3072369789E4AD154EB78002B40F0968169799C4B1B88ADF81430002319E0964A32F81320ADF810209DF8112012B996486C
:40240000825C00E00022012A0AD98F4A12F81320914205D18C4A32F81330ADF8143002E00133002BE3D09DF81530FF2B05D104D14FF472718548FFF7CBF9BDF81430ADF8D5
:402440002830ADF81430C3F307230121834AD1545CE1FFF7D7FD59E1AB7E002B3FD12B7E012B02D100227E4B1A70E97E794B1B88ADF81030002319E0734A32F81320ADF8D7
:4024800014209DF8152012B97348825C00E00022012A0AD96C4A12F81320914205D16A4A32F81330ADF8103002E00133002BE3D09DF81130FF2B05D104D14FF47271634898
:4024C000FFF786F9BDF81030ADF82C30ADF81030C3F30723FF2B02D0297E624AD1540222614B1A7012E102225F4B1A700EE1FFF789FD5E4B1B7813F0010F00F00781584BBE
:402500001B78012B03D10222554B1A70FEE0032B03D10022524B1A70F8E0022B40F0F68000224F4B1A70524B1B685B68514A1178C1EBC10203EB42039A79002A00F0E68064
:402540009B88002B00F0E2804B4B1B78002B40F0DD800120FFF7A4FB002840F0D78001223F4B1A70D2E0FFF74DFDCFE00B88ADF800309DF801301BB90221374AD15405E0ED
:4025800023B94FF461713148FFF722F96A7829882D4B23F812106B780021384AD15403EB4302374E9119324B1B6818692B7803EB430303F584531033034433F8060F9B7847
:4025C00090538B70687800EB400002213044FFF7DFFA6B7803EB430333449B7898420BD0284B1B680021284898476B7803EB4303981900229A53827029462046FFF702FD3D
:4026000084E00B88ADF804309DF805301BB90021114AD15405E023B94FF461710B48FFF7D7F86B7800210D4AD15429462046FFF7E9FC6BE00B88ADF814301723ADF8163081
:4026400005A80BF00DF961E050A80208104E081058A802080C4E08105CA802080C7702085DA802081077020854A8020864A80208D076020852A8020869A8020868A8020897
:4026800060A80208D4760208040001000A89531E9BB2112B13D98B89ADF81430ADF8162012238DF8183001238DF8193005A80BF0CBF81F4A137803F0FE03137026E0084640
:4026C000FFF7E2FB014620B929462046FFF79AFC01462846FFF746FC18E0FFF793FC15E0FFF790FC12E0FFF78DFC0FE0FFF78AFC0CE00846FFF70AFC29462046FFF782FC4A
:4027000004E00C4A137843F001031370084B1B7813F0110F09D0064A137803F0FE031370054B1B682946204698470CB070BD00BF64A8020853A80208D47602081C4B1B685E
:40274000002B34D01A4B5B681B685A8803899A422DD18388012B2AD103681B78022B26D810B588B0044603AB07C883E807000022ADF81820A289ADF81A2040228DF81C207A
:402780001846FFF74BFB80B9A389ADF8043000238DF806300294064B1B6801A905489847054A137803F0FE03137008B010BD704720770208BF00010064A8020800B587B033
:4027C00000238DF81730009301930293039304930123ADF80430074B5B681B685B88ADF808300DF1170300936846FFF717FB07B05DF804FB20770208B0F5803F11D208B59B
:4028000083B245F20202934207D045F20E02934205D10846FFF792FF01E0FFF7CFFF002008BD0020704700BF50B110B5064C60600648FFF7B9FB63685B681BB1236010BD1B
:402840000348704710BD00BF20770208F92708100100160000F1080343604FF0FF328260C360036100230360704700BF00230361704700BF43684B609A688A609A68516074
:4028800099600861036801330360704730B40D68B5F1FF3F01D1026907E000F1080200E01A4653681C68A542FAD253684B6099608A605160086103680133036030BC704767
:4028C00003694268816891608268416851605A68904201D182685A60002202611A68013A1A601868704700BF10B5044601F0D2F9A26BE36B9A4201D1012400E0002401F0FA
:40290000EBF9204610BD00BF10B5044601F0C2F9A36B0BB9012400E0002401F0DDF9204610BD00BF70B504461646856B026CFAB166B9806801F05BFBA268236C1344A3603D
:402940006268934214D32368A36011E0C06801F04EFB236C5B42E2681A44E26021688A4202D262681344E360022E01D105B1013D0135A563002070BD026C72B110B503462D
:40298000C4681444C4604068844201D31868D8600846D96801F02BFB10BD704738B5054601F078F995F8454064B20AE06B6A53B105F1240000F050FE08B100F0DBFE013CAF
:4029C00064B2002CF2DCFF2385F8453001F084F901F060F995F8444064B20AE02B6953B105F1100000F038FE08B100F0C3FE013C64B2002CF2DCFF2385F8443001F06CF906
:402A000038BD00BF38B540B94FF03F0383F31188BFF36F8FBFF34F8FFEE704460D4601F039F92168E26B236C03FB021060600020A063A160013A02FB0313E360FF2384F8FF
:402A4000443084F845307DB92369ABB104F1100000F002FE80B14FF08052094B1A60BFF34F8FBFF36F8F07E004F11000FFF7F2FE04F12400FFF7EEFE01F02EF9012038BD93
:402A800004ED00E010B5029B0C4609B91B6000E01A60D8631C6401211846FFF7B3FF10BD40B94FF03F0383F31188BFF36F8FBFF34F8FFEE7F0B583B0034611B101FB00F0CD
:402AC00000E000201D4617460C46483001F024FA064638B100903B4600F1480221462846FFF7D0FF304603B0F0BD00BFF0B585B0019240B94FF03F0383F31188BFF36F8FE7
:402B0000BFF34F8FFEE7044619B9026C1AB9012202E0012200E0002242B94FF03F0383F31188BFF36F8FBFF34F8FFEE7022B03D1E26B012A02D102E0012200E0002242B99B
:402B40004FF03F0383F31188BFF36F8FBFF34F8FFEE71D460E4600F015FE18B9019B1BB9012302E0012300E0002343B94FF03F0383F31188BFF36F8FBFF34F8FFEE70027A0
:402B800001F088F8A26BE36B9A4201D3022D21D12A4631462046FFF7C5FE636A6BB104F1240000F059FD88B14FF08052324B1A60BFF34F8FBFF36F8F08E038B14FF08052C7
:402BC0002D4B1A60BFF34F8FBFF36F8F01F084F801204EE0019B1BB901F07EF8002048E01FB902A800F07CFD012701F075F800F069FB01F04FF894F844305BB2B3F1FF3FDC
:402C000002D1002384F8443094F845305BB2B3F1FF3F02D1002384F8453001F05DF801A902A800F067FDF0B92046FFF75DFEA0B1019904F1100000F0D7FC2046FFF7AEFECE
:402C400000F0CEFB00289BD14FF080520A4B1A60BFF34F8FBFF36F8F92E72046FFF79EFE00F0BEFB8CE72046FFF798FE00F0B8FB002005B0F0BD00BF04ED00E02DE9F84362
:402C800040B94FF03F0383F31188BFF36F8FBFF34F8FFEE7044619B9006C18B9012002E0012000E0002040B94FF03F0383F31188BFF36F8FBFF34F8FFEE7022B03D1E06BEF
:402CC000012802D102E0012000E0002040B94FF03F0383F31188BFF36F8FBFF34F8FFEE71F469046894601F0D9F8EFF311864FF03F0383F31188BFF36F8FBFF34F8FA26B05
:402D0000E36B9A4201D3022F1ED194F845506DB23A4649462046FFF705FEB5F1FF3F0DD1636A9BB104F1240000F096FC80B1B8F1000F0FD00120C8F800000CE06B1C5BB228
:402D400084F84530012006E0002004E0012002E0012000E0012086F31188BDE8F88300BFF0B585B0019240B94FF03F0383F31188BFF36F8FBFF34F8FFEE7044619B9036C9B
:402D80001BB9012302E0012300E0002343B94FF03F0383F31188BFF36F8FBFF34F8FFEE70E4600F0EFFC18B9019B1BB9012302E0012300E0002343B94FF03F0383F3118838
:402DC000BFF36F8FBFF34F8FFEE7002700F062FFA56BC5B131462046FFF7CEFD013DA563236963B104F1100000F036FC38B14FF08052304B1A60BFF34F8FBFF36F8F00F0E6
:402E00006BFF012053E0019B1BB900F065FF00204DE01FB902A800F063FC012700F05CFF00F050FA00F036FF94F844305BB2B3F1FF3F02D1002384F8443094F845305BB23D
:402E4000B3F1FF3F02D1002384F8453000F044FF01A902A800F04EFCF0B92046FFF754FDA0B1019904F1240000F0BEFB2046FFF795FD00F0B5FA0028A8D14FF080520D4B2E
:402E80001A60BFF34F8FBFF36F8F9FE72046FFF785FD00F0A5FA99E72046FFF77FFD00F09FFA2046FFF730FD00288FD0002005B0F0BD00BF04ED00E000230BE0074A52F8B9
:402EC000332032B9054A42F8331002EBC303586070470133092BF1D9704700BF78A8020870B504460D46164600F0D4FE94F844305BB2B3F1FF3F02D1002384F8443094F893
:402F000045305BB2B3F1FF3F02D1002384F8453000F0E2FEA36B2BB93246294604F1240000F07CFB2046FFF739FD70BD094B9B6A1B680BB9012300E0002323B14FF0FF3253
:402F4000044BDA627047034B9A6AD268D2685268DA6270472877020810B50446006B01F00BF8204601F008F810BD00BF2DE9F0478246894615469846089F099E0A9C9200FF
:402F8000A521206B01F03EF8236B05F18042013A03EB820525F00705002308E019F80310E21882F8341019F8032012B101330F2BF4D9002384F84330062F00D90627E762D3
:402FC000201DFFF753FC04F11800FFF74FFC2461C7F10703A3616462002306E003F1100204EB8202002151600133042BF6D90023A36584F85C3042465146284600F01EFE9E
:40300000206006B13460BDE8F08700BF70B5002407E004EB8402930010481844FFF71AFC0134062CF5D90E4C04F1BC063046FFF711FC04F1D0052846FFF70CFC04F11400F4
:40304000FFF708FC04F1E400FFF704FC2046FFF701FCA662C4F8F85070BD00BF587702082877020838B5044600F014FE264BD3F8FC200132C3F8FC20D3F800314BB9224BAC
:40308000C3F80041D3F8FC30012B10D1FFF7BEFF0DE01D4BD3F804314BB91B4BD3F80031DA6AE36A9A4202D8174BC3F80041164AD2F808310133C2F80831E36AD2F80C212F
:4030C000934202D9104AC2F80C310F4D05F1300003EB83039A00211D1044FFF7CBFB00F0FBFDD5F804316BB1D5F80031DA6AE36A9A4207D24FF08052044B1A60BFF34F8F3D
:40310000BFF36F8F38BD00BF2877020804ED00E038B517E000F0BEFD0D4CD4F8F030DD68281DFFF7CDFBD4F8FC30013BC4F8FC30D4F81031013BC4F8103100F0CDFD28460B
:40314000FFF70AFF024BD3F81031002BE2D138BD2877020808B5FFF7DBFF064B1B6B012BF9D94FF08052044B1A60BFF34F8FBFF36F8FF0E72877020804ED00E070B504463F
:403180000E46174BD3F81451D3F800010430FFF797FBB4F1FF3F07D136B11148D0F800110431FFF767FB70BD2C440D4BD3F800315C60A54208D90A4BD3F8F800D3F80011D7
:4031C0000431FFF763FB70BD054DA86AD5F800110431FFF75BFBEB6A9C4200D2EC6270BD287702082DE9F04385B006460F4615469846900000F090FE60B18146602000F07F
:403200008BFE044610B1C0F8309004E0484600F0B3FE00E000248CB10023039302940D9B01930C9B009343462A4639463046FFF79DFE2046FFF716FF012001E04FF0FF3009
:4032400005B0BDE8F08300BF00B583B0194B019300230093802218491848FFF7C3FF012801D100F015FB012814D14FF03F0383F31188BFF36F8FBFF34F8F114B4FF0FF326C
:40328000DA620122C3F804210022C3F8142100F0A3FD0BE0B0F1FF3F08D14FF03F0383F31188BFF36F8FBFF34F8FFEE703B05DF804FB00BF44780208484E081055310810FD
:4032C00028770208034AD2F818310133C2F81831704700BF28770208014BD3F814017047287702082DE9F0413C4BD3F81831002B65D13A4BD3F814410134C3F81441CCB931
:403300009B6A1B6843B14FF03F0383F31188BFF36F8FBFF34F8FFEE7304B9A6AD3F8F8109962C3F8F820D3F820210132C3F82021FFF7FCFD294BDB6A9C4203D2002645E05B
:40334000012600E00026254B9B6A1B680BB9012300E0002323B14FF0FF32204BDA6235E01E4B9B6ADB68DD686B689C4202D21B4AD3622BE005F104084046FFF7A1FAAB6AEF
:403380001BB105F11800FFF79BFAEB6A134AD2F80C21934202D9114AC2F80C310F4F07F1300003EB83039A0041461044FFF762FAEA6AD7F80031DB6A9A42C1D2C3E7074A39
:4033C000D2F824310133C2F824310026034BD3F8283103B101263046BDE8F08128770208394BD3F8183143B94FF03F0383F31188BFF36F8FBFF34F8FFEE770B500F04AFC1F
:40340000314BD3F81821013AC3F81821D3F81831002B52D12C4BD3F8FC303BBB00244FE0294D2B6ADC6804F11800FFF749FA261D3046FFF745FAE36AD5F80C21934201D94B
:40344000C5F80C31204D05F1300003EB83039A0031461044FFF70EFAE26AD5F80031DB6A9A4204D30122C5F8282100E00024164B5B69002BD4D10CB1FFF758FD124BD3F854
:40348000244164B1FFF72EFF18B101220E4BC3F82821013CF6D100220B4BC3F824210A4BD3F828315BB14FF08052084B1A60BFF34F8FBFF36F8F012402E0002400E00024D8
:4034C00000F00AFC204670BD2877020804ED00E010B5B0B10446104BD3F8183143B14FF03F0383F31188BFF36F8FBFF34F8FFEE7FFF7E8FE00212046FFF740FEFFF770FF45
:4035000000E0002038B94FF08052044B1A60BFF34F8FBFF36F8F10BD2877020804ED00E0304BD3F8183123B101222E4BC3F82821704710B52B4B0022C3F82821D3F8003122
:403540001B6B1A68B2F1A53F0BD15A68B2F1A53F07D19A68B2F1A53F03D1DB68B3F1A53F07D0204BD3F80001D3F80011343100F0C1FC1C4BD3F80C310AE043B94FF03F03C5
:4035800083F31188BFF36F8FBFF34F8FFEE7013B03EB83018A0013490A44126B002AECD008469900CC18A2000244546B64685463303019448A0008320244944206D1606861
:4035C00003EB83018A0007490A445063054903EB830082000A44526BD268C1F80021C1F80C3110BD2877020840B94FF03F0383F31188BFF36F8FBFF34F8FFEE710B50C46ED
:40360000054BD3F800111831FFF740F901212046FFF7B4FD10BD00BF2877020838B540B94FF03F0383F31188BFF36F8FBFF34F8FFEE70C461546074AD2F800111831FFF7CF
:4036400019F90DB14FF0FF3429462046FFF796FD38BD00BF2877020838B5C368DC6844B94FF03F0383F31188BFF36F8FBFF34F8FFEE704F118052846FFF722F9154BD3F883
:403680001831ABB9251D2846FFF71AF9E36A114AD2F80C21934202D90E4AC2F80C3103EB83039A0029460C481044FFF7E3F803E029460A48FFF7DEF8E26A064BD3F8003107
:4036C000DB6A9A4204D90120024BC3F8280138BD002038BD28770208587702083C770208034BD3F820210260D3F814314360704728770208F8B540B94FF03F0383F311882C
:40370000BFF36F8FBFF34F8FFEE7054641B94FF03F0383F31188BFF36F8FBFF34F8FFEE70C4600F0B7FA124BD3F814016968421A2368B3F1FF3F14D02F680D4ED6F820617B
:40374000B74201D088420ED29A4206D29B1A23602846FFF7C5FF002406E000232360012402E0002400E0012400F0B6FA2046F8BD287702080122024BC3F82821704700BF93
:4037800028770208064BD3F804312BB1044BD3F818311BB902207047012070470020704728770208064B1A681368B3FA83F35B09036013B9D368186870470020704700BFBF
:4037C0005478020808B54160006191420AD8D21A83699A4211D2011D0A4B5868FFF756F8002008BD9A4201D2994208D2011D054B1868FFF74BF8002008BD012008BD012015
:4038000008BD00BF5478020870B500F043FA0E4B9B68B3B90C4C04F10C063046FFF71AF804F120052846FFF715F82660656000220C210A20FFF734F9A06010B10349FFF7C2
:403840003BFB00F049FA70BD54780208504E08102DE9F041079C41B94FF03F0383F31188BFF36F8FBFF34F8FFEE70F4674B11D4616468046FFF7C8FFC4F80080A761E66146
:403880002562069B6362201DFEF7F0FFBDE8F08100B583B0FFF7B8FF0D4B9B6853B10D4B019303230093002380220B490B48FFF799FC00E0002040B94FF03F0383F31188CB
:4038C000BFF36F8FBFF34F8FFEE703B05DF804FB5478020888780208584E0810A93B08102DE9F04182B005460E4617469846282000F012FB044640B10190089B00934346DF
:403900003A4631462846FFF7A3FF204602B0BDE8F08100BF40B94FF03F0383F31188BFF36F8FBFF34F8FFEE730B585B015460446124A9068F0B11A460191029503940529ED
:4039400013DCFFF71FFF022807D10023089A01A90A488068FFF7CAF80DE000231A4601A906488068FFF7C2F805E0002301A9FFF785F900E0002005B030BD00BF5478020884
:4039800070B582B029E0DB681E68DC68251D2846FEF796FF636A20469847E369012B1CD1A36933449E4207D2636024612946104B1868FEF76BFF10E0002100910B46324651
:4039C0002046FFF7A7FF40B94FF03F0383F31188BFF36F8FBFF34F8FFEE7054B1B681A68002AD0D1024A51681160536002B070BD5478020838B50546FFF76EFC0446074BE5
:403A00009B6B984204D2FFF7BBFF01232B6001E000232B60014B9C63204638BD5478020870B582B005460E46134B1B68DB68DC68201DFEF745FFE369012B18D1A1692B46B6
:403A4000324629442046FFF7BDFE80B1002100910B462A462046FFF75DFF40B94FF03F0383F31188BFF36F8FBFF34F8FFEE7636A2046984702B070BD5478020870B582B022
:403A800006460C46FFF71EFC01A8FFF7B3FF019B1BBB054644B9B04206D3FFF7A1FC29463046FFF7BDFF1AE02CB10E4B5B681C68B4FA84F464092246711B0A4B9868FFF70F
:403AC0000FFAFFF78DFC50B94FF08052064B1A60BFF34F8FBFF36F8F01E0FFF781FC02B070BD00BF5478020804ED00E030B587B04DE0039B002B4ADB059C636913B1201DDB
:403B0000FEF7DEFE02A8FFF775FF039B092B3ED8DFE803F00505053D273A05053D270499A5690B46024629442046FFF74BFE70B3636A20469847E369012B28D1A2690021BB
:403B400000910B46049802442046FFF7E3FEF0B94FF03F0383F31188BFF36F8FBFF34F8FFEE70499A16141B94FF03F0383F31188BFF36F8FBFF34F8FFEE7034602460144C2
:403B80002046FFF71FFE02E0204600F0F5F9002203A9044B9868FFF7E3F80028A9D107B030BD00BF5478020800B583B001A8FFF7F9FD0199FFF762FFFFF798FFF6E700BF06
:403BC00082B0002301930D4B1B68B3F1FF3F08D04FF03F0383F31188BFF36F8FBFF34F8FFEE74FF03F0383F31188BFF36F8FBFF34F8F019B002BFCD002B070472843020851
:403C000008480068006880F308884FF0000080F3148862B661B6BFF34F8FBFF36F8F00DF00BF000008ED00E0DFF80C00016841F4700101607047000088ED00E04FF08073A0
:403C400040F8043C21F0010140F8081C054B40F80C3C40F8202C6FF0020340F8243C4438704700BFC13B08100000000000000000074B19680868B0E8F04F80F30988BFF337
:403C80006F8F4FF0000080F311887047AFF30080287802084FF03F0383F31188BFF36F8FBFF34F8F0A4A136801331360012B0DD1084B1B6813F0FF0F08D04FF03F0383F332
:403CC0001188BFF36F8FBFF34F8FFEE7704700BF2843020804ED00E0094B1B6843B94FF03F0383F31188BFF36F8FBFF34F8FFEE7013B034A13600BB983F31188704700BF7D
:403D000028430208000000000000000000000000EFF30980BFF36F8F154B1A681EF0100F08BF20ED108A20E9F04F10602DE909004FF03F0080F31188BFF34F8FBFF36F8FD5
:403D4000FFF7EEFB4FF0000080F3118809BC19680868B0E8F04F1EF0100F08BFB0EC108A80F30988BFF36F8F704700BFAFF300802878020808B54FF03F0383F31188BFF36D
:403D80006F8FBFF34F8FFFF7ADFA18B14FF08052024B1A60002383F3118808BD04ED00E0084A0023136008490B60084B1B680849A1FB03139B09013B06490B6007231360BB
:403DC000704700BF10E000E018E000E0DC420208D34D621014E000E010B582B02A4B1A78D2B20192FF221A701B78DBB28DF803309DF80330254A03F03F03137007235360B3
:403E000009E0224A5368013B53609DF803305B00DBB28DF803309DF8033013F0800FF0D11A4B5B68042B08D04FF03F0383F31188BFF36F8FBFF34F8FFEE71B0203F4E063C5
:403E4000124A5360019BDBB20F4A1370104B1A6842F47F021A601A6842F07F421A60FFF79FFF00240B4B1C60FFF7DEFE0A4A136843F040431360FFF7C3FEFFF751FBFFF7EE
:403E80009FFE204602B010BD00E400E09078020820ED00E02843020834EF00E0EFF305830F2B0FD9104A9B5CDBB2104A1278934208D24FF03F0383F31188BFF36F8FBFF356
:403EC0004F8FFEE70A4B1B6803F4E063074A5268934208D94FF03F0383F31188BFF36F8FBFF34F8FFEE77047F0E300E0907802080CED00E008B54FF03F0383F31188BFF323
:403F00006F8FBFF34F8F4FF441710248FDF760FCFEE700BF604E081038B5044610F0070F02D020F007040834FFF7CCF9104B1B682BB90F4A02F10C0323F0070313600D4BC4
:403F4000D3F814361C4442F2F772944208D8A34208D2074A15681D44064BC3F8144602E0002500E00025FFF73BFA284638BD00BF98780208889A020840B14FF03F0383F39E
:403F80001188BFF36F8FBFF34F8FFEE7704700BF88B108B5094AD062094B1B7833B91046FDF710FD0122064B1A7000E0002020B9FDF734FD08BD0348704708BD2C43020827
:403FC000A0A002080100160008B5FDF7A7FD08BD10B501390244904207D010F8013B11F8014FA342F7D0181B10BD002010BD10B5431E0A44914204D011F8014B03F8014F67
:40400000F8E710BD02440346934202D003F8011BFAE7704770B50E46054618B183690BB900F022FAAB69AC6813B9284600F01CFA224B9C4201D16C6808E0214B9C4201D149
:40404000AC6803E01F4B9C4208BFEC68A3891B0701D523693BB92146284600F0A5F810B14FF0FF3070BD013EA36816F8011F013BA36091B1002B04DAA269934206DB0A298E
:4040800004D023685A1C22601970EDE72246284600F036F80130E7D1E2E7002B08DA22460A21284600F02CF80130D9D00A2070BD23680A205A1C2260187070BD5C55081028
:4040C0007C5508109C550810024B01461868FFF7A1BF00BF4446020810B5034642B111F8014B03F8014B013A002CF7D11A4400E010BD934202D003F8014BFAE710BD00009E
:40410000F8B50F461446064618B183690BB900F0ABF9224B9C4201D1746808E0204B9C4201D1B46803E01F4B9C4208BFF468A369A360A3891A0709D523693BB1236820699E
:40414000181A63699842FDB20FDB08E02146304600F02AF80028F1D04FF0FF30F8BD2146304600F017F90028F6D1A368013BA36023685A1C22601F706269431C934204D0F0
:40418000A389DB0707D50A2D05D12146304600F001F90028E0D12846F8BD00BF5C5508107C5508109C550810324B70B51D6806460C4625B1AB6913B9284600F055F92E4B2B
:4041C0009C4201D16C6808E02C4B9C4201D1AC6803E02B4B9C4208BFEC68B4F90C309AB215071DD4D00602D4092232603AE0510712D5616B41B104F14403994202D03046A5
:4042000000F01CFA00236363A38923F02403A3810023636023692360A38943F00803A38123694BB9A38903F42073B3F5007F03D02146304600F0C6F9A28912F0010305D0B0
:404240000023A36063695B42A36103E0920758BF6369A36023695BB9B4F90C3003F0800080B230B143F04003A3814FF0FF3070BD002070BD444602085C5508107C55081072
:404280009C5508108A892DE9F041054610070C4659D44B68002B02DC0B6C002B17DDE66AAEB102F48052002392B22F682B600AB1606D15E0216A01232846B047411C0FD19A
:4042C0002B686BB11D2B01D0162B03D12F600020BDE8F081A38943F04003A381BDE8F081A3895A0705D56368C01A636B0BB1236CC01A00230246E66A216A2846B047431C37
:40430000A38906D129681D293AD8214ACA40D60736D500226260D9042269226004D5421C01D12B6803B96065616B2F600029CED004F14403994202D0284600F07FF9002048
:404340006063BDE8F0810F69002FC0D093070E6808BF4B690F6018BF0023C7EB06088B6002E00744C0EB0808B8F1000FAFDD43463A46216AA66A2846B0470028F1DCA38938
:4043800043F04003A3814FF0FF30BDE8F08100BF0100402038B50B6905460C46DBB118B183690BB900F060F80C4B9C4201D16C6808E00B4B9C4201D1AC6803E0094B9C4282
:4043C00008BFEC68B4F90C302BB121462846BDE83840FFF757BF002038BD00BF5C5508107C5508109C550810014900F0A9B800BF95430810002310B50446036043608360EB
:4044000081814366C281036143618361194608225C30FFF7F7FD054B6362054BA362054BE362054B2462236310BD00BFB5470810D74708100F4808103348081070B56823C0
:404440004D1E5D430E4605F1740100F045F9044640B1002180E842000C30A06005F16802FFF7D0FD204670BD836910B5044633BB8364C3640365124B124A1B6882629842F3
:4044800004BF0123836100F01FF86060204600F01BF8A060204600F017F80022E06004216068FFF7A7FF01220921A068FFF7A2FF02221221E068FFF79DFF0123A36110BD9F
:4044C00058550810E9430810F8B51C4B1E68B369074613B93046FFF7C7FF4836B4687368013B04D4B4F90C507DB16834F8E733680BB13668F2E704213846FFF79FFF3060E2
:404500000028F6D10C233B60F8BD4FF6FF73E3810123A38165662560A560656025616561A5610822294604F15C00FFF76BFD6563A563A564E5642046F8BD00BF5855081035
:404540002DE9F8438046894600F14804002694B1A5686768013F0CD4AB89012B07D9B5F90E30013303D029464046C84706436835F0E72468EBE73046BDE8F88370B50E4650
:40458000B1F90E10002990B014461D4606DA00232B60B3891A060ED540230EE001AA00F06FF90028F3DB029A02F47042A2F500535A425A412A604FF480630020236010B07E
:4045C00070BD00008B8973B59E0705460C4610D401AB6A46FFF7D2FF00990646284600F07BF868B9B4F90C309A0522D443F00203A38104F14703236023610123636118E032
:404600000D4BAB62A389206043F08003A381009B6361019B20614BB1B4F90E10284600F041F918B1A38943F00103A381A0893043A08102B070BD00BFE943081038B505468D
:40464000002946D051F8043C0C1F002BB8BFE41800F04AF91F4A1368114613B96360146032E0A3420ED92268A018834204BF18685B68636004BF121822600C6024E0A242C7
:4046800003D813465A68002AF9D118681918A1420BD12168014458188242196014D1106852685A60014419600EE002D90C232B600AE021686018824204BF106852686260AD
:4046C00004BF091821605C602846BDE8384000F00CB938BD3CA8020870B5CD1C25F0030508350C2D38BF0C25002D064601DBA94202D90C23336046E000F0F6F8234B1C68DA
:404700001A462146A1B10B685B1B0ED40B2B03D90B60CC18CD501EE08C420DBF63684B686360136018BF0C4615E00C464968E9E7174C23681BB9304600F02CF8206029469F
:40474000304600F027F8431C18D0C41C24F00304A0420DD12560304600F0C7F804F10B00231D20F00700C31A0ED05A42E25070BD211A304600F00EF80130EBD10C233360A5
:40478000304600F0B2F8002070BD00BF3CA8020838A8020838B5064C002305460846236000F0DEF8431C02D1236803B12B6038BD00A9020810B50C46B1F90E1000F096F8C0
:4047C0000028ABBF636DA3891B1823F48053ACBF6365A38110BD2DE9F0411F468B89DB0505460C46164605D502230022B1F90E1000F068F8A389B4F90E1023F48053A38113
:4048000032463B462846BDE8F04100F017B810B50C46B1F90E1000F055F8431CA38915BF606523F4805343F48053A38118BFA38110BDB1F90E1000F013B8000038B5074C99
:40484000054608461146002222601A46FBF7DEFE431C02D1236803B12B6038BD00A9020838B5064C002305460846236000F050F8431C02D1236803B12B6038BD00A9020878
:4048800038B5074C0023054608461146236000F047F8431C02D1236803B12B6038BD00BF00A9020838B5064C002305460846236000F03EF8431C02D1236803B12B6038BDFB
:4048C00000A9020838B5074C054608461146002222601A4600F034F8431C02D1236803B12B6038BD00A902087047704738B5074C054608461146002222601A4600F028F85F
:40490000431C02D1236803B12B6038BD00A90208024B58221A604FF0FF30704700A90208024B58221A604FF0FF30704700A90208024B58221A600020704700BF00A9020817
:40494000024B58221A604FF0FF30704700A90208024B58221A604FF0FF30704700A90208044A05491368002B08BF0B46184410601846704740A8020808A90208F8B500BFB1
:40498000F8BC08BC9E467047F8B500BFF8BC08BC9E46704743595F424C455F4556545F535441434B5F4F4E0D0000000043595F424C455F4556545F4741505F44455649434E
:4049C000455F444953434F4E4E45435445440D0052756E205461736B5F426C652121210D0000000052756E205461736B5F5374617475734C65642121210D00004F72616EE9
:404A0000676520537461747573204C45442054696D657200434F524520434D342053544152542121210D00005461736B205374617475736C656400005461736B20426C6593
:404A4000000000004572726F72212020203A2052544F53202D207363686564756C65722063726173686564200D0000006D61696E5F636D342E630000030000000100000019
:404A800001000000000000000503600004000000010000000000000001000000060460000800000058760208ED08081047656E6572617465645F536F757263655C50536F63
:404AC00043365C70646C5C647269766572735C7065726970686572616C5C737973696E745C63795F737973696E742E630000000047656E6572617465645F536F7572636587
:404B00005C50536F43365C70646C5C647269766572735C7065726970686572616C5C6970635C63795F6970635F6472762E68000047656E6572617465645F536F7572636504
:404B40005C50536F43365C70646C5C647269766572735C7065726970686572616C5C6970635C63795F6970635F6472762E63000047656E6572617465645F536F75726365C9
:404B80005C50536F43365C70646C5C647269766572732F7065726970686572616C2F6970632F63795F6970635F6472762E68000047656E6572617465645F536F757263650B
:404BC0005C50536F43365C70646C5C647269766572735C7065726970686572616C5C6970635C63795F6970635F706970652E630047656E6572617465645F536F75726365E7
:404C00005C50536F43365C70646C5C647269766572735C7065726970686572616C5C7363625C63795F7363625F756172742E680047656E6572617465645F536F757263659B
:404C40005C50536F43365C70646C5C647269766572735C7065726970686572616C5C7363625C63795F7363625F636F6D6D6F6E2E6800000047656E6572617465645F536F3D
:404C8000757263655C50536F43365C70646C5C647269766572735C7065726970686572616C5C7363625C63795F7363625F756172742E630047656E6572617465645F536F20
:404CC000757263655C50536F43365C70646C5C647269766572735C7065726970686572616C5C737973706D5C63795F737973706D2E6300002400060030000100280002001E
:404D00002400020000316253C4F5A697B988DBEA7D4C1F2E4372211087B6E5D4FACB98A93E0F5C6D86B7E4D5427320113F0E5D6CFBCA99A8C5F4A796013063527C4D1E2F73
:404D4000B889DAEB3D0C5F6EF9C89BAA84B5E6D7407122137E4F1C2DBA8BD8E9C7F6A59403326150BB8AD9E87F4E1D2C02336051C6F7A495F8C99AAB3C0D5E6F4170231243
:404D800085B4E7D67A4B1829BE8FDCEDC3F2A1900736655439085B6AFDCC9FAE80B1E2D344752617FCCD9EAF38095A6B4574271681B0E3D2BF8EDDEC7B4A19280637645503
:404DC000C2F3A0914776251483B2E1D0FECF9CAD3A0B586904356657C0F1A293BD8CDFEE79481B2AC1F0A3920534675678491A2BBC8DDEEF82B3E0D1467724153B0A596803
:404E0000FFCE9DAC3F06000000000000FFFF000047656E6572617465645F536F757263655C50536F43365C70646C5C6D6964646C65776172655C626C655C63795F626C6564
:404E40005F6761702E68000049444C4500000000546D725100000000546D72205376630047656E6572617465645F536F757263655C50536F43365C70646C5C72746F735C82
:404E80004672656552544F535C31302E302E315C536F757263655C706F727461626C655C4743435C434D34465C706F72742E630000000000010012000100002801000000AE
:404EC0000B0000000018000000000000020003280100020003000000002A0000000000000300002A0100020103000000000000007443020804000328010002000500000006
:404F0000012A0000000000000500012A0100020105000000020000007C430208060003280100020007000000042A0000000000000700042A01000201070000000800000091
:404F400084430208080003280100020009000000A62A0000000000000900A62A0100020109000000010000008C4302080A000328010002000B000000C92A0000000000005B
:404F80000B00C92A010002010B00000001000000944302080C000028010000000F00000001180000000000000D000328010020000F000000052A0000000000000E00052AD1
:404FC000000020010F000000040000009C4302080F00022901010A030F00000002000000A443020810000028010000001200000002180000000000001100032801000400A3
:4050000012000000062A0000000000001200062A000104011200000001000000AC430208010003000500070009000B000C000E000F00000010001200000000000800000063
:405040000800000000020000000000000000000000000000000000000000000000000000000000000B00000000000000000000000000000000000000000404000104080006
:4050800002041400030C200004042C000506480029980810BD9C0810BD9C0810BD9C0810BD9C0810A582081079830810BD9C0810BD9C0810BD9C0810BD9C0810BD9C0810FB
:4050C000BD9C0810BD9C0810BD9C0810BD9C0810BD9C0810519A08109D9A0810D5900810D9920810B59608104171081000000000FC5408109C54081008000000890F0910D3
:40510000000000006C530810B85208100F000000000000000000000000000000000000000000000001200000B1A9081006200000F5AA081007200000C5A908100820000022
:40514000B5AA081009200000B5AB08100A200000B1A808100B20000079AB08100C20000041AB0810102000000DA90810112000008DA808101220000091AA081014200000B0
:405180002DAB08101520000025A9081017200000E1A808100E20000011A90810ACFD000087AD0810ADFD00007BAC0810A0FD0000F1AD0810A1FD0000DBAC0810A2FD0000FF
:4051C00017AD0810A5FD0000E7AE0810A6FD00004BAE0810A8FD00004DAC0810A9FD000023AC0810AAFD00003FAD0810ABFD0000ADAE0810AFFD00003DAD0810C3FD000059
:4052000099AE0810B0FD000011AE0810B2FD00005FAE0810051400006BA908102D0C000045AA08107B0C0000F3A908107C0C0000E9AB081027200F2028201020292010205C
:405240002B200A202C200B202D200D202E200C204E20172000000100010000010001020203000200000000000202010002000001000100050100050202030002000000007F
:405280000002050100050000A50709100D0909101508091001010B0102028102820503040403840906090709080909090A09050A0C0B0D0D0E0E000001000000010000004D
:4052C00000000000020000000400000002000000030000000700000005000000040000000A00000008000000050000000C0000000B000000060000000E0000000D00000044
:4053000007000000100000000F0000000800000013000000110000000900000016000000140000000A0000001700000017000000FF00000018000000180000000B00000076
:405340001B000000190000000C0000001D0000001C0000000D0000001F0000001E0000000E000000210000002000000001000000452C0910FEFFFFFF112B0910010000003F
:40538000452C091006000000092E0910F8FFFFFF112B0910180012002D2B0910A000000C8528091047FFEDFB112B0910E8000C007D2A0910000120008D2909101FFED3FFA0
:4053C000112B0910A000000C793209105FFFFFFB112B091000020000D1300910FFFDFFFF112B0910000C00008D270910FFF3FFFF112B0910000A0000312A09100100000033
:40540000512A0910FEF7FFFF112B091000200000D12809100040000081310910FF9FFFFF112B0910FFFFFFFF172B0910FFFFFFFF8527091000800000812709100000010008
:405440007D270910FF7FFEFF112B09100080010075270910FF7FFEFF112B09100000800371270910FFFF7FFC112B091000801F0A79270910FF7FE0F5112B0910000000008D
:40548000000000000000000000000000870000000000000000000000000000008100000000000000000000008200000001000000010000000100000002000000020000005B
:4054C000020000000400000003000000030000000600000005000000F10000000700000007000000F20000000900000008000000FF0000000A0000000A000000020000007E
:405500000937091001000000093709100E000000FD35091002000000413609100C000000E535091002000000813609100C000000E53509100E000000093709100C0000000A
:405540004537091002000000E53509100E0000008937091043000000E445020800000000000000000000000000000000000000000000000000000000000000000000000004
:4055800000000000000000000000000000000000000000000000000000000000000000000000000000000000000000000000000000000000000000000000000000000000EB
:4055C0002DE9F05F00250746041D00F1180840682E4E4FF6FF7A88B1616879B180070DD1207A80070AD198F80E0038B12849084600F096FB10EA0A0002D044E0354642E0D5
:405600002289A37ADFF88C90206858B1C9F800000025A9F80420A9F80650A9F808302946FEF7F0FCA07A801D00F0FF0B5946606800F068F8050021D1404601F0D3F80500AD
:405640001CD1E06820B1384600F0C0FA050015D1B9F80400B9F80610884206D3401A80B2594600F00FFE20B100E05046354628B109E0A07A801DC0B200F0BAF900F0CEF9C3
:405680000549012008702846BDE8F09F0100160015590810C8A002082444020810B500F071FB0449002008608880C88008810249087010BDC8A002082444020870B504462E
:4056C00000208A0703D001F00302891A091D084B89B2DA889E885518B54206D81D682A442260DA881144D98070BD024870BD0000C8A00208030016000148008970470000D2
:40570000C8A002082DE9F84705460C460020890000908A466846FFF7D1FF07004BD12748009B0022036017E003F82220062A08D2234803EB820100EB820046784E7040880B
:4057400007E005EB8200183803EB820186784E700088521C4880D2B2A242E5D300251EE005F1010909F0FF0015E003EB850203EB8001B2F802C04E88B4450AD991F8018059
:40578000A1F802C092F801C081F801C0568082F80180401CC0B2A042E7D309F0FF05A542DED347B951466846FFF788FF070002D10449009808603846BDE8F8872844020838
:4057C000785008102C440208F0B5002319E05A1C00EB830612E030F8235030F82240A5420BD2778820F8234000EB8204B4F802C0A6F802C020F822506780521C8A42EAD3A8
:405800005B1C8B42E3D3F0BD00487047D4A0020805F03EBD10B5022400F088FF10B100F0AFFE00B90124204610BD05207047000010B5002428B110220349FEF7D8FB204639
:4058400010BD024810BD0000D4A0020801001600F8B506004FF000008DF8000006F1040407D020892081304601F038F8050002D011E01248F8BDA17A6A46606801F008F826
:40588000050008D1E06830B1708C000903D0304600F0FAF905462089208165B93046FFF78FFE050007D1304600F010FF0546A17A6068FFF789FF2846F8BD000001001600CC
:4058C00038B504004FF00000ADF8000008D06189090A05D1617A102902D8E179102901D90A4838BDA0816946204600F02BFF0500A089BDF800100844A08104D11022214668
:405900000348FEF774FB284638BD000001001600D4A0020870470000002809D005494A68002A05D0011F087852F8200000F054BC704700002844020810B50446FFF7DCFEF3
:40594000C0B2801DA0420BD30648406840B150F8240000F0ADFB002801D000F8044B10BD002010BD28440208F8B516460D460446FFF7C2FEC0B2801DA04203D24FF0FF306D
:405980000090F8BDB2B2E9B2684600F0BBFB0099481C03D00248406840F824100098F8BD284402082DE9F0410746FFF7A5FE801D0B49C6B2002005460C680CE0617839B13A
:4059C0006188B94202D32078FFF7B6FF002804D1241D6D1CEDB2B542F0D3BDE8F081000028440208002801D0FFF796BF7047000070B506460848002504680AE0617829B115
:405A000062882078121D0023FFF7AEFF241D6D1CEDB2B542F2D370BD284402081CB50024142001908DF800402346064A694606480CF038F804480068401C01D14FF6FF742C
:405A400020461CBD855A0810304402080EB50C4A0146002312684FF6FF7004290DD009290AD109200093ADF80800ADF80A30694610460CF014F880B20EBD04200093F2E7C8
:405A80003044020870B5D0E90054468900890C282DD2DFE800F02C2C0606112C2C152C191C27E0B23246294609F040F9E0B23246294600F0A7FC1AE000200BF0FFFC16E0CD
:405AC0002878FCF7E3F812E000F07AFD0FE0E8B2022C02D008F068FE09E0FF2807D002F0B3FE04E02846022C03D008F033FF002070BD03F083F9FAE70148006800F06CBA8D
:405B0000304402082DE9F0411F4F0026386D60B1796D51B14218891E12F8024C0022FCF71DF8844201D0194E2BE0002505EB850307EB8304606800B357F82310E9B162894A
:405B4000D7F854C0624518D294F80CC01CF0090F02D0FEF74CFA0AE009780170606831B1628957F82310083A08310830F1E723691BB10122207B114698476D1CADB2042D45
:405B8000D4D33046BDE8F081E4A00208FFFF1600F0B5C10701D040F008000B4CFF2184F85D10002101250E4601EB810204EB820205FA01F3177B03409F4200D11681491C47
:405BC000C9B20429F0D3F0BDE4A0020870B5124900B3418C114CC1F30711002584F85C10016921654069C4E91505FF2684F85D6028464FF6FF7300EB800204EB8201401CAB
:405C00004B8144F822500D610E73C0B20D810428F1D30021084670BD01001600E4A0020810B5174B48B3417839B3002202E04908521CD2B20029FAD102EB8201114A02EB10
:405C4000810111F8084CFF2C17D103787BB1438821F80A3C946D136D234441F8143C4488936D2344936582680AB141F8042C103942780A72406800230860184610BD0000DA
:405C800001001600E4A00208F0B5428C234C46690021C2F30712D2B3D3070BD090F8203003EBC30505EB431501EB850101EB031101F14001530715D5C37F2C2513FB05F52B
:405CC0005FEA857C4FF00C0723D003EB430505EBC30307EB830505F00305C5EB830505F11005294492070ED590F821004FF00803C20095070FD003EBC00202F00302C2EB02
:405D0000C0020C321144891C8E4200D300242046F0BD0C35E5E70832F4E70000010016000F4A10B5002313600E4A13600E4B18600E4801600E49012008600E4908600002AE
:405D40000E4990600C4808600D4914300860A0F58A70506000F0D0F800F07AF9002010BD4C440208344402086044020864440208504402084044020844A2020844440208AD
:405D8000584402080020704710B501004FF0000010D0094B1A689C681144A14209D25868196010448A0704D001F00302891A091D196010BD002010BD344402082DE9F041E7
:405DC00002461A4F002010253B1F4FF0FF38444639681B6807E000EB800605EB86068E59761C1ED0401C9842F5D3601C16D004EB84060C2000EB86000A5002EB4200800065
:405E0000FFF7C2FF396841F8260060B1396805EB8602002088507868401C78602046BDE8F0810446E1E74046F9E70000444402082DE9F0410F464FF0FF36002821DB224950
:405E4000096888421DD8E7B1DFF87C8000EB800508F104081020D8F8001000EB85040859401C0ED0FBF7B2FED8F800000C2202EB8502015950F802C04346614504DBFBF77B
:405E80009BFE3046BDE8F081082101EB8506815950F8250001EB410500EB85003D6805607D684560BD6885601868491C82588A4200D10021815118680159491C0151FBF7C4
:405EC0007BFE0020DEE7000040440208002803DB08490968884202D94FF0FF307047054900EB8000091D1022096802EB8000085870470000404402082DE9F0430020134ACA
:405F00000427441E03464FF0080C1025A2F10409506014E000EB8001166807EB8108401C46F8083016680CEB810846F80830166805EB810846F80840166846F82130D9F8B9
:405F400000108842E6D30020BDE8F083444402082DE9F0470D4601001E4C4FF00000089E80464FF0FF37206010D0606885420DD262B15EB1642E09D804F10C09C5EBC501B6
:405F8000D9F8000000EB8104207A10B13846BDE8F0870120226020721846FFF70FFF6060401C13D06681A6812761676199F80410A94201D289F8045041460B4661F30F0341
:405FC0000A46284600F020F82846E0E784F80880DCE700004C44020810B5002810DB0949496888420CD80749C0EBC0000C31096801EB80004068FFF769FF08B1002010BD3B
:40600000012010BD4C44020838B50024009400F001F838BD1FB500220C49541E00280A6012DB496888420FD80849C0EBC0000C31096801EB800001A94068FFF7F9FE401C46
:4060400002D0002004B010BD2046FBE74C440208F0B50021154A4E1EA2F10C0711710B46BE601EE0C1EBC1000425146805EB800566511468082505EB800544F82030146841
:40608000635514680C2505EB8005635314680A2505EB800563531825146805EB8000491C265078688142DDD30020F0BD5844020838B5041E4FF00000009012DB1048007815
:4060C00084420EDA0E4D0C35286800EB0411096839B1042101EB04110844694600F047F908B1002038BDFBF771FD0F21286801EB0411425C521E4254FBF75EFD009838BDAD
:40610000684402082DE9F74F8A46002500996C1ED21C0C604FF6FC71DFF8B88002EA0107A8F10C0128460A78D8F8001005E001EB00131B687BB1401CC0B29042F7D3601C37
:406140002CD0042000EB041B01EB0B00514600F0FDF818BB01E00446F1E7D8F800000C2101EB041147520E22D8F8001002EB041207FB0AF001F802A00F22D8F8001002EB6D
:40618000041201F802A000F0ABF8D8F8001001EB0411086010B1814600260EE0012516E0D8F8001001EB0B00494600F0FAF808B1012500E0B944761CF6B25645F0D335B910
:4061C0000098046098F80410491C88F804102846BDE8FE8F74440208F8B54FF000070D46041EADF800703ADB25480078844236DADFF88CC00CF10C0CDCF8001001EB04103B
:40620000006860B30C2202EB04128E5A0E2202EB041285428B5C06FB030220D395421ED2002205E002FB060EAE4504D0521CD2B29A42F7D39FB1042000EB0417C8196646AB
:406240006A46294600F0C7F848B9BDF80000012807D030682946384400F0A3F818B10120F8BD0020F8BDFBF7B1FC0F21306801EB0411425C521C4254FBF79EFCF1E70000AA
:40628000684402082DE9F0410D46002400F03CF8002821D11149002201F10C034A600C210E264FF00F0E14E01F6801EB041C07EB04173A601F6827F80C201F6806EB041CB0
:4062C00007F80C200EEB041C1F68641CE4B207F80C20AC42E8D31A71BDE8F0816844020800280BD0074AC01C20F00301506853880144994203D893685160184470470020E1
:406300007047000068440208F8B5064600200E4D00900C01297021466846FFF7CFF958B905F10C0100980860301B001F84B221466846FFF7C3F910B14FF6FF70F8BD6C80E2
:406340000098A8600020F8BD6844020830B50D4604000AD0A800FFF7C3FF606028B125704FF0FF306080002030BD012030BD70B50D46040004D01DB1B4F90200002801DA15
:40638000012070BDFBF722FCB4F90210606850F8210028606088401E6080FBF70DFC002070BD70B50D46040006D02DB12078B4F90210401E814201DB012070BDFBF706FCD3
:4063C0006088401C00B26080616841F82050FBF7F3FB002070BD70B500231D4610B1B0F902400AE0012070BD466856F823608E4201D1012503E05B1CDBB29C42F4DA15703A
:40640000002070BD70B586B015460E460446182200216846FDF7F6FD00238DF800308DF80140ADF804506846029600F00CF906B070BD00000EB501890091407801900A20C5
:40644000ADF808000020ADF80A000348694600680BF025FB0EBD0000304402080EB541680091417801910221ADF808100089ADF80A000348694600680BF011FB0EBD000046
:406480003044020800F0DEB802490020488000F071B800007C4402082DE9F041074621480125002405704FF6FF75012F02D0022F2FD10DE0477082801B4A128842F480724D
:4064C00082818160174800F0BEF810BB2C4620E0164E012B20D0B6F800C0022B624492B2328010D081607188091D8A4211D1104947708280098841F400718181094800F0A5
:40650000A2F818B103E009684161ECE72C46002030802046BDE8F0814A887280096801610420F5E774A20208604502087C440208E444020870B504460D4600EB4400C2005C
:4065400000212846FDF75EFD074A0020074914711560907150710648FBF73CFB08B1002070BD012070BD000080440208356408105D64081001491420FFF7DCBF8CA2020856
:4065800010B5FBF70BFB06494A7989798A4201D1012400E00024FBF705FB204610BD00008044020805494879401CC0B248710A79904201D100204871704700008044020835
:4065C00010B5FBF7FDFA0B4948798A7990420DD0096800EB400001EBC000AFF21B020649FBF712FB10B10920FFF730FABDE81040FBF7DCBA80440208A565081070B5104CDA
:406600000146A2796379501CC0B2834216D02579854200D193B1206802EB420200EBC2001822FDF7E4FCA079401CC0B2A0712179884201D10020A071012070BD002070BDAB
:4066400080440208704710B5FFF7D8FF0446FFF7B7FF204610BD000010B5124802F0E8FB68B9114802F004F848B911490F480860084600F03BFA10B90E4809F077FA040064
:406680000ED1FFF73FFA0404240C04D0002141F2050000F07FF900214FF4805000F07AF9204610BD2D7E0810D7810810B5BA08109044020885B5081010B504F03BFC03F068
:4066C0004DFDBDE8104004F0D7BD000070B50546041D00F1180600F09BF9124829680160616809888180A17A03290ED361688979017261684989C1F347014172616889897D
:40670000C180B1798172B17BC17200F091F8002806D100F0A5F8002802D1034A0121117070BD00006CA402088844020810B502F069F9012803D1FFF7DFF9012800D0002092
:4067400010BD00002DE9F0411C4D0C46060005D0DFF86C8098F8000018B16D1C2846BDE8F081708908F04EFC308808F051FC0500F4D130460AF032F90746304603F088FB70
:406780000744304600F0E0FF384400F634102080304605F0F6FD218808442080B17BC1EBC10100EBC1002080304601F0F7FB218808442080A8F80400D0E7000001001600BA
:4067C0008844020810B505F073FD03F06FFB00F08DFF0AF02DF901F09FFBBDE8104008F0E5BB000010B5040010481DD0204608F0E5FB002818D1204601F09CFB002813D131
:4068000020460AF021F900280ED1204600F076FF002809D1204603F04FFB002804D12046BDE8104005F050BD10BD000001001600094810B50949C07A887000F03BFF064817
:4068400001F0B6FB002806D103F048FBBDE81040014805F077BD10BD6CA402088844020810B500220849094800F0ECFE10F0FF0008D000220449054800F0E4FEBDE8104060
:4068800005F07AB810BD00005966081051A60810F0B5002635461670334616E030F82340082C0AD900EB83077F8837B1083C20F823401478641C147005E053B100EB830413
:4068C00020F8235065805B1CDBB28B42E6D33046F0BD014EFBE7000001001600F0B52B4B041D002099881B7802460BB12848F0BD274E2368083E4BB127898F4206D361689D
:4069000021B100234FF0020CA57A35E03046F0BD0CEB820431F804E0BEF1000F28D031F822402CB304FB0E339BB23AB1012A0ED0022A11D0032A14D000201BE0B1F800E0D1
:406940008C78BEF1230FE1D3032CDFD310E08C8874B1302CDAD30BE00C894CB1282CD5D306E08C8924B1233C4FF6BA7E7445CDD20028CCD1521CD2B29542C9D8C5EBC50149
:4069800003EB81018F42C1D3F0BD00008844020809001600034A1268002A02D0002800D0104770476CA4020870B5044605F0E7FC01F00AFC00F026FE144D012C11D0022C8E
:4069C0000ED1002143F21200FFF7E4FF00F020F8FEF764FEFFF7F6FEFFF76EFE0020287070BDFEF711FF4489FFF722FF38B9FFF737FF20B901202870204608F003FBBDE84E
:406A00007040002143F20100FFF7C4BF884402080248002101604160816070476CA4020801464FF6C05007F037BE0000064910B509780448002903D00220FFF7F1FF002054
:406A400010BD0000020016008844020830B50C46054600F00DF8002806D1044A6978126802EB0111C988218030BD0000944402080B4B024642F6137051781B7899420DD20D
:406A8000084B1B6803EB01110B7A6FEA03039B0704D4127809788A4200D10020704700008A4402089444020810B50A490A4B027809781B68491EC9B203EB01142478A24219
:406AC00002D14170002010BD0029F3D14FF6FF7010BD00008A440208944402080249096801EB0010807B70479444020842F6117138B1006828B105490A6822B142F614707E
:406B0000704708467047086000207047984402082DE9F74F84B0154604980E4660B1152E05D01E2E0BD9D22E09D0522E07D042F6127007B0BDE8F08F42F61170F9E70020C2
:406B40000390049890F80180FF208DF808000498FFF78EFF07002ED1DFF854A542F6147B1B2E0CD01D2E0AD0F0070BD0012E06D0DAF8001001EB0810007BB0421AD1F0071F
:406B800003D00FE01E2EF3D0F9E71E2E14D0DAF8001001EB0810407B20B1522E0CD0D22E08D109E01D2E07D1DAF8001001EB0810407B08B15F46D6E0012E20D0DAF800108B
:406BC00001EB0810C088001DFEF7ECFE040018D002214FF0010942F616700F2E75D013DC4FF005024FF0030729D2DFE806F0282BFB48FA54F971F880F78FF685F50009209A
:406C0000E2E742F60577AEE0182E6FD009DCA6F11002082A13D2DFE802F0E7B5FDE81212EBEB1E2E7ED006DC192E7BD01B2E01D01D2E04D1EEE0522E75D0D22E74D042F694
:406C400012778DE0E878042809D0DAF80030A97803EB0810007B401E81420ED105E0DAF8001001EB0810007B38B1A87860712888A071000AE071E878F7E05F4670E02988FC
:406C8000172901D207466BE0ADF8067028886071000AA07144E02879012817D01027ADF8061028796071EA88BDF80630BF1C201D7A4318442968FDF79AF9BDF80600E98867
:406CC00007FB0100ADF806002AE050E00227E6E7ADF80690A88829688200601DFDF787F9BDF80600A98800EB8100EBE7D0E1ADF80610A888801C5CE0286808B1A88828B94F
:406D0000012003900020ADF806900090434601222146284600F0EEFB070026D00398F8B1267102E061E075E076E100208DF80A008DF80960304600F09FFA04998DF80800ED
:406D40006A460988ADF80410BDF806100094091DADF806100146002002F0CAFF070002D02046FEF73FFE3846E3E6E8889DE1ADF80690AA88601D2968FDF739F9BDF80600B5
:406D8000A988AFE0EA88002A3FF47CAFAA88002AFAD0DAF8007007EB0813DB885B1E9A42BFF670AF2A68002AEED0ADF80610A888001DA8806071AA88E888BDF8063042438B
:406DC000201D18442968FDF712F9BDF80600A988EA8801FB020075E7DBE0BFE0B5E083E047E033E021E003E0DEE0ADF8069097E729890029C8D0ADF80690221D288909F82C
:406E00000200BDF80670631D010AF954BDF80600801C4EE0434601222146284600F046FB07009DD1E888C01C4CE729881729FFF429AFADF8067028886071000AA071DAF8DD
:406E40000020298802EB0810418069E7298800299AD06B88002B97D099423FF613AF6171080AA0716888E071000A2072ADF8062056E72A89002A87D06989002984D08A4247
:406E8000EBD8ADF80690221D288909F80200BDF80670631D010AF954BDF80670A11D68897854010ABDF80670E01D3954BDF80600001D81B2ADF80610A8898854BDF80610DA
:406EC000000AC854BDF806004346801C82B2ADF806202146284600F00DFB0700A1D1BDF80600E9880844EDE629880029B0D06A88002AADD09142B0D8ADF80690211D288885
:406F000009F80100BDF80670631D020AFA54BDF80670A21D6888B854020ABDF80670E01D3A54BDF80600001D82B2ADF80620287D012801D050185EE0A8885054000A67E061
:406F4000022000E010200844BCE62988002992D06171080AA071ADF80670E1E62988002989D0ADF8069028886071000AA071BDF80600221D801C81B2ADF806106888885484
:406F8000010ABDF80620601D1154BDF80600801C98E642462146284600F062FA07009DD1E98809EB41008DE6298800299ED06A88002A9BD091429ED8ADF80690201D2988BC
:406FC00009F80010BDF80670631D0A0AFA54BDF80670A21D6988B9540A0ABDF80670E11D7A54BDF80610091D8AB2ADF80620297D01290AD010441022291DFCF7F8FF287D83
:40700000BDF8061001289DD19AE7A9881154080ABDF80610C854F2E7288900283FF411AEADF806902889271D010A09F80700BDF80620601D1154BDF80600801CADF8060038
:40704000DAF8001001EB0810C0880F3880B2E880A988884200D9E980BDF80600EA8838442968FCF7C4FF2868FEF7BCFCBDF80600E988084480B2ADF806003844E968016014
:407080002969416069698160BDF806000C3019E6297811B101297FF4F5ADADF80690221D287809F80200BDF80600401C0AE600009444020830B50C460546FFF7D9FC0028D7
:4070C00005D1034A6978126802EB01118C7330BD94440208F0B40E480023122603600D48012401780A48001F17220568491E05EB011046708460C28042808280037343734F
:407100008473F3D1F0BC1721034A042001F0D0BE984402088A44020899720810704700017047000001490020086070479444020801010148FEF7C2BA9444020870470000B0
:40714000044A4079126802EB001080680860002070470000944402082DE9F843324E0746457930684FF0000800EB05104FF01209846811F1090F2DD011F1050F05D00C2257
:40718000042914D0082949D136E04078122806D008F004FB316801EB051181F80190316824F0040401EB051181F80D8036E04178122906D10092401C3B461C4A1E2108F04F
:4071C00089FA3168787A01EB0511401C487344F0040423E04078122806D008F0DFFA316801EB051181F80190316824F0080401EB051181F80C8011E04178122906D10092DD
:40720000401C3B46094A1E2108F064FA3168787A01EB0511401C087344F00804306800EB05108460BDE8F883944402083975081070B5104D04460129286800EB041081603B
